:020000040800F2
:1000000068060020D5010008DD010008DF010008B6
:10001000E1010008E3010008E5010008000000001C
:10002000000000000000000000000000E7010008E0
:10003000E901000800000000EB010008ED010008E4
:10004000EF010008EF010008EF010008EF010008D0
:10005000EF010008EF010008EF010008EF010008C0
:10006000EF010008EF010008EF010008EF010008B0
:10007000EF010008EF010008EF010008EF010008A0
:10008000EF010008EF010008EF010008EF01000890
:10009000EF010008EF010008EF010008EF01000880
:1000A000EF010008EF010008EF010008EF01000870
:1000B000EF010008EF010008EF010008EF01000860
:1000C000EF010008EF010008EF010008EF01000850
:1000D000EF010008EF010008EF010008EF01000840
:1000E000EF010008EF010008EF010008EF01000830
:1000F000EF010008EF010008EF010008EF01000820
:10010000EF010008EF010008EF010008EF0100080F
:10011000EF010008EF010008EF010008EF010008FF
:10012000EF010008EF010008EF010008EF010008EF
:1001300000F002F800F03AF80AA090E8000C8244BF
:100140008344AAF10107DA4501D100F02FF8AFF29C
:10015000090EBAE80F0013F0010F18BFFB1A43F0A5
:1001600001031847D0040000F0040000103A24BF37
:1001700078C878C1FAD8520724BF30C830C144BF0C
:1001800004680C607047000000230024002500264E
:10019000103A28BF78C1FBD8520728BF30C148BFEA
:1001A0000B6070471FB51FBD10B510BD00F035F8CE
:1001B0001146FFF7F7FF00F021FA00F053F803B4FF
:1001C000FFF7F2FF03BC00F05BF8000080F3088843
:1001D000704700000948804709480047FEE7FEE7EE
:1001E000FEE7FEE7FEE7FEE7FEE7FEE7FEE7FEE7E7
:1001F00004480549054A064B70470000E904000819
:100200003101000868000020680600206802002014
:1002100068020020704770477047754600F02CF860
:10022000AE4605006946534620F00700854618B0E3
:1002300020B5FFF7DDFFBDE820404FF000064FF08E
:1002400000074FF000084FF0000B21F00701AC460B
:10025000ACE8C009ACE8C009ACE8C009ACE8C0092A
:100260008D46704710B50446AFF300802046BDE8C8
:100270001040FFF7A4BF00000048704704000020B2
:1002800001491820ABBEFEE72600020070470000BF
:100290000149C860704700000020024030B50446A4
:1002A00004254FF4302000F089F80546042D17D1BD
:1002B0000C48006940F002000A49086108464461A0
:1002C000006940F0400008614FF4302000F076F8FB
:1002D00005460448006941F6FD710840014908617E
:1002E000284630BD0020024004200B49C96801F0B7
:1002F000010109B101200EE00749C96801F00401BC
:1003000009B1022007E00449C96801F0100109B1F0
:10031000032000E0042070470020024004200B4925
:10032000C96801F0010109B101200EE00749C9685F
:1003300001F0040109B1022007E00449C96801F095
:10034000100109B1032000E00420704700200240A2
:100350000348006940F080000149086170470000CF
:100360000020024070B504460D460426F00200F05D
:1003700025F80646042E11D10948006940F0010015
:10038000074908612580F00200F018F80646044885
:10039000006941F6FE71084001490861304670BDB0
:1003A0000020024002480349486003484860704703
:1003B0002301674500200240AB89EFCD00B502461E
:1003C0000423FFF791FF034603E0FFF78DFF034689
:1003D000521E012B01D1002AF7D102B9052318467C
:1003E00000BD10B502460B460020002100BF04E00E
:1003F00032F811400444A0B2491C9942F8D310BD10
:1004000010B500F001F810BD0CB50020019000906F
:100410003348006840F480303149086000BF3048FC
:10042000006800F4003000900198401C0190009892
:1004300018B90198B0F5A06FF1D12948006800F40F
:10044000003010B10120009001E0002000900098E1
:10045000012843D12348006840F01000214908607A
:100460000846006820F0030008600846006840F075
:10047000020008601A484068194948600846406808
:1004800048600846406840F480604860084640681C
:1004900020F47C1048600846406840F4E81048604A
:1004A0000846006840F08070086000BF0C48006893
:1004B00000F000700028F9D00948406820F00300DF
:1004C000074948600846406840F00200486000BFA5
:1004D0000348406800F00C000828F9D10CBD00006A
:1004E000001002400020024010B51348006840F0A0
:1004F00001001149086008464068104908400E494B
:100500004860084600680E4908400B4908600846E4
:10051000006820F4802008600846406820F4FE004F
:1005200048604FF41F008860FFF76AFF4FF00060DB
:100530000449086010BD0000001002400000FFF8F0
:10054000FFFFF6FE08ED00E070B548E04FF4A03183
:100550002748FFF746FF4FF6FF7188422FD1FFF77C
:1005600021FF3520FFF794FE00240AE0214901EB2A
:10057000C420FFF793FE00BFFFF7D0FE0128FBD099
:10058000641C502CF2D31C480668002413E0184960
:1005900031F8145000BFFFF7C1FE0128FBD0154908
:1005A00001EB44002946FFF7DDFE00BFFFF7B6FE72
:1005B0000128FBD0641CB442E9D3FFF7C9FEFFF762
:1005C000F1FE3520FFF764FE0B48801EFFF766FE44
:1005D00000BFFFF7A3FE0128FBD0FFF7B9FE0648D6
:1005E000801E00884AF6AA218842AFD070BD000064
:1005F00000A002080020000802F00708FFF7A4FF8F
:1006000011E00948006809490840B0F1005F0AD1CB
:10061000054840680649086003490868FFF7D6FDA9
:10062000034800688047ECE7002000080000FE2F28
:100630000000002054060008000000200400000014
:100640006C01000858060008040000206406000041
:08065000880100080000000011
:0400000508000131BD
:00000001FF
:10200000F054002021220008292200082B22000879
:102010002D2200082F2200083122000800000000B5
:102020000000000000000000000000003322000853
:1020300035220008000000002F230008C58000089A
:102040003B2200083B2200083B2200083B220008FC
:102050003B2200083B2200083B2200083B220008EC
:102060003B2200083B2200083B220008094A0008E6
:102070003B2200083B2200083B2200083B220008CC
:102080003B2200083B2200083B2200083B220008BC
:102090003B2200083B2200083B2200083B220008AC
:1020A0003B2200083B2200083B2200083B2200089C
:1020B0003B22000871AE00083B2200083B220008CA
:1020C0003B2200083B2200083B2200083B2200087C
:1020D0003B2200083B2200083B2200083B2200086C
:1020E0003B2200083B2200083B2200083B2200085C
:1020F0003B2200083B2200083B2200083B2200084C
:102100003B2200083B2200083B2200083B2200083B
:1021100029B200083B2200083B2200083B220008AD
:102120003B2200083B2200083B2200083B2200081B
:1021300000F002F800F04AF80AA090E8000C82448F
:102140008344AAF10107DA4501D100F03FF8AFF26C
:10215000090EBAE80F0013F0010F18BFFB1A43F085
:1021600001031847D0B90000F0B900000A4410F884
:10217000014B14F00F0508BF10F8015B240908BFDC
:1021800010F8014B6D1E05D010F8013B6D1E01F8D3
:10219000013BF9D1641E03D0641E01F8015BFBD141
:1021A0009142E4D37047000000230024002500265C
:1021B000103A28BF78C1FBD8520728BF30C148BFAA
:1021C0000B6070471FB51FBD10B510BD00F05EF865
:1021D0001146FFF7F7FF09F0D7FE00F07CF803B4D3
:1021E000FFF7F2FF03BC00F07FF8000072B6704703
:1021F00062B67047EFF3108072B6704780F31088B4
:10220000704730BF704720BF7047B0FA80F070470A
:1022100090FAA0F0B0FA80F0704790FAA0F0704702
:102220000948804709480047FEE7FEE7FEE7FEE76A
:10223000FEE7FEE7FEE7FEE7FEE7FEE704480549A6
:10224000054A064B70470000A1AD00083121000887
:10225000F04E0020F0540020F0500020F0500020FC
:1022600070477047704710B500F008F8006810BD5F
:1022700010B5044600F002F8046010BD0048704735
:102280008C4E0020004870478C4E00207546FFF7AA
:10229000F9FFAE4605006946534620F00700854623
:1022A00018B020B5FFF7CAFFBDE820404FF0000688
:1022B0004FF000074FF000084FF0000B21F007012E
:1022C000AC46ACE8C009ACE8C009ACE8C009ACE871
:1022D000C0098D46704710B50446AFF30080204614
:1022E000BDE81040FFF77BBF01491820ABBEFEE7F9
:1022F00026000200704700001D484FF0FF010170EA
:10230000002080F309881B48016881F308881A4877
:102310004FF08051016062B6FEE717484FF08051E0
:102320000160704714484FF080510160704772B6E9
:10233000EFF3098028B1203880E8F00F0F490968D1
:10234000086000B50E4880475DF804EB0D480E4963
:102350000A78027009480D490A680260106890E81E
:10236000F00F203080F309884EF0F40E62B670470B
:1023700022ED00E06000002004ED00E058000020A5
:10238000457F00082D0000202E0000205C0000206A
:1023900010B502210F4800F0F5F800210E4802F0B8
:1023A000D3FB32200C490839C86001210A4802F0E9
:1023B000CBFB0121074800F0F3F80648083000681D
:1023C00040F002000349083108600121014800F093
:1023D00086F910BD002401400800024000B591B00C
:1023E0000121480207F020F90121082007F01CF91B
:1023F0000121102007F018F94FF4004007F0E8F829
:102400000120ADF8400000208DF8430010A9584885
:1024100002F056FF0220ADF8400000208DF8430086
:1024200010A9534802F04CFF0120ADF840000020F5
:102430008DF8430010A94F4802F042FF0820ADF884
:10244000400000208DF8430010A94A4802F038FFF0
:102450000420ADF8400000208DF8430010A9454845
:1024600002F02EFF0121084607F0BEF84248009016
:1024700042480190002002903220039000200490F6
:102480008020059040000690800007900020089072
:102490004FF40050099000200A906946384802F035
:1024A0007EFB0121364802F04FFB01220221344815
:1024B00002F06CFB00200B9001208DF830008DF8AD
:1024C00031004FF460200D9000200E9005208DF813
:1024D0003C000BA928484C3800F078F8072301226B
:1024E000082125484C3800F099F8072302220921D9
:1024F00021484C3800F092F8072303220A211E4895
:102500004C3800F08BF8072304220C211A484C3871
:1025100000F084F8072305220D2117484C3800F0FD
:102520007DF8012114484C3800F03AF80121124896
:102530004C3800F02AF810484C3800F0CBF800BFB7
:102540000D484C3800F037F80028F9D10A484C38CB
:1025500000F0D0F800BF08484C3800F02CF80028F4
:10256000F9D1012104484C3800F0B9F811B000BD90
:10257000000C0140001001404C240140FC4D0020A3
:1025800008000240CA430260704721B1826842F0ED
:102590000102826003E0826822F0010282607047DB
:1025A00021B1826842F48072826003E0826822F482
:1025B000807282607047014600208A6802F004023F
:1025C0000AB1012000E000207047000030B502464B
:1025D0000020002350680F4C20400D790C6844EA1D
:1025E00005242043506090680B4C2040D1E90254F0
:1025F0002C434D7944EA450420439060D06A20F48E
:1026000070000C7C641EE4B2234340EA0350D062A5
:1026100030BD0000FFFEF0FFFDF7F1FFF0B504460E
:102620000D4600200021092D11DDE068A5F10A0604
:1026300006EB4607072606FA07F18843A5F10A06C6
:1026400006EB460603FA06F10843E0600CE0206959
:1026500005EB4507072606FA07F1884305EB450613
:1026600003FA06F108432061072A0FDA606B561E51
:1026700006EB86071F2606FA07F18843561E06EB6F
:10268000860605FA06F10843606322E00D2A0FDA98
:10269000206BD61F06EB86071F2606FA07F1884334
:1026A000D61F06EB860605FA06F10843206310E004
:1026B000E06AA2F10D0606EB86071F2606FA07F16F
:1026C0008843A2F10D0606EB860605FA06F10843DB
:1026D000E062F0BD816841F008018160704721B17E
:1026E000826842F4A002826003E0826822F4A002C1
:1026F00082607047816841F004018160704700008A
:1027000051485249086052484860524888605248CF
:10271000C86052480861524848615248886152482E
:10272000C86152480862524848625248886252481A
:10273000C862524808635248486352488863524806
:10274000C8655248086652484866524888665248EA
:10275000C866524808675248C1F884005148C1F819
:1027600088005148C1F898005048C1F89C00504872
:10277000C1F8A0004F48C1F8AC004F48C1F8B00004
:102780004E48C1F8B4004E48C1F8B8004D48C1F8F1
:10279000BC004D48C1F8C0004C48C1F8C4004C48CA
:1027A000C1F8C8004B48C1F8CC004B48C1F8D00074
:1027B0004A48C1F8DC004A48C1F8E0004948C1F87D
:1027C000E4004948C1F8E8004848C1F8EC0048482E
:1027D000C1F844014748C1F848014748C1F85001D1
:1027E0004648C1F864014648C1F868014548C1F847
:1027F0006C014548C1F870014448C1F8740144486F
:10280000C1F878014348C1F88C014348C1F89001F0
:102810004248C1F894014248C1F898014148C1F8C2
:102820009C014148C1F8A0014048C1F8A4014048BA
:10283000C1F8A8013F48C1F8BC013F48C1F8C00138
:102840003E48C1F8C401704765970008C44600209F
:1028500049A6000869A60008E9A7000809A8000819
:1028600089970008159B0008A9970008B9970008E8
:10287000F194000801950008D9990008E999000829
:10288000719800088198000821A4000849A3000855
:1028900029A2000889A20008E9A20008A9A300084B
:1028A0006DA10008819A0008199800086D9A000827
:1028B000C9970008F1A000080DA10008119E0008AA
:1028C0002D9E0008259D0008419D000881A4000858
:1028D0009DA40008559C0008719C0008F197000811
:1028E0009195000841950008A995000811950008E8
:1028F000859B0008C1A00008499B00087D9F000837
:10290000999F000811A000082DA00008ADA10008A3
:10291000C9A1000845A5000811A50008319F0008BD
:10292000FD9E0008BD9B0008D99B000875A5000806
:1029300091A50008B19A0008ED9C00080DA60008BA
:1029400010B5244890F8480000F0F000802805D128
:10295000204890F8480000F00F0018B11E481F49A9
:10296000086010BD00201B4981F8AC01486B4FF096
:102970007E510AF00DFC04461648416D20460AF0CF
:10298000A5FE08D21349486B4FF07E510AF000FCB7
:102990001049086518E00F49886B4FF07E510AF026
:1029A00089FF04460B48416D20460AF08FFD08D28E
:1029B0000849886B4FF07E510AF07CFF0549086595
:1029C00002E00448416D01650121024880F8AD1123
:1029D00000BFC6E794090020196700089400002092
:1029E0001CB5002400BF00F027F821E06946002054
:1029F00002F04CFD48B90F48016800980AF0C8FB86
:102A00000C49C1F8B40100240DE0142C02DA601C5A
:102A100084B208E00748D0F8F40120F0100010302C
:102A20000449C1F8F40101AA0021022005F0D2FAFC
:102A3000DCE700009409002008B507F067FF04F008
:102A400019F86946182007F00BFF9DF80000382898
:102A500001D1002008BD4FF0FF30FBE708B500BFF3
:102A60000BE000F0B5FC02F067FD0449C1F8F0018D
:102A70006A4600211E2005F0ADFAF2E79409002015
:102A800010B5204890F84800282803D01E481F4958
:102A9000086010BD00201B4981F8AC01486B4FF065
:102AA0007E510AF075FB04461648416D20460AF037
:102AB0000DFE08D21349486B4FF07E510AF068FBB7
:102AC0001049086518E00F49886B4FF07E510AF0F5
:102AD000F1FE04460B48416D20460AF0F7FC08D28F
:102AE0000849886B4FF07E510AF0E4FE05490865FD
:102AF00002E00448416D01650121024880F8AD11F2
:102B000000BFC6E794090020B52B000898000020FC
:102B100010B50C4890F84800252803D00A480B4906
:102B2000086010BD0020074981F8AC01888F0AF0C9
:102B3000B9FC044908650121024880F8AD1100BFC5
:102B4000EFE7000094090020B52B00089800002052
:102B500010B5144890F8480000F0F000202818D173
:102B60001048D0F8F401C0F3807068B90D48D0F86F
:102B7000F401C0F3006038B908F09AFC00F082FA62
:102B80000948006880470BE00021064880F8AD1135
:102B900006E00648064908600021024880F8AD11A9
:102BA00010BD00009409002098000020196700085B
:102BB0009400002000211F4880F8AD1190F84800D3
:102BC000242803D11C481D49086032E0194890F8B8
:102BD0004800252803D11A481849086029E01548FB
:102BE00090F84800282806D11648144908600021AA
:102BF000104881651DE00F4890F84800212803D156
:102C000011480E49086014E00A4890F8480022284C
:102C100003D10E48094908600BE0064890F84800C7
:102C2000202803D10A480549086002E009480A49FA
:102C30000860704794090020812F00089800002048
:102C4000112B0008812A00085D2C0008752E000851
:102C5000E92E0008196700089400002010B57C4890
:102C600090F84800212808D000207A4908707A4955
:102C700008807A487A49086010BD0020744981F8BC
:102C8000AC017448007805287ED2DFE800F0032DFF
:102C90006581B80073496E480165012180F8AD1166
:102CA000014608696F490AF073FA04466848D0F88B
:102CB000B41120460AF00AFD15D865480169694833
:102CC0000AF0F8FD04466248D0F8B41120460AF034
:102CD000FDFB08D80120644908705E490870002196
:102CE0005B4880F8AD11B0E00121594880F8AD1182
:102CF0005D49097801EB8101490001F13C000AF0CE
:102D0000B9FB53490865086D58490AF0DFFC0AD839
:102D100001205549087003204E49087000214C4895
:102D200080F8AD1117E04A49086D4FF07E510AF066
:102D3000C1FD04464648D0F8B41120460AF0C6FB4F
:102D400009D202204349087000204349088000212D
:102D50003F4880F8AD1178E000213D4880F8AD1182
:102D60003D4801880088401C3B4A108042F6E060E4
:102D700081420CDB00201146088001203549087093
:102D800039480078401C00E053E0374908705CE0A7
:102D900001212F4880F8AD113349097801EB8101F9
:102DA0004900C1F178000AF065FB29490865086D02
:102DB0002F490AF08BFB09D801202B4908702549BF
:102DC00008700021224880F8AD1117E02049086DF5
:102DD0004FF07E510AF0DCF904461D48D0F8B411DA
:102DE00020460AF073FC09D804201A490870002014
:102DF000194908800021164880F8AD1125E000210E
:102E0000134880F8AD11144801880088401C124A0C
:102E1000108042F6E06081420ADB00201146088003
:102E200003200C49087010480078401C0E490870B7
:102E30000BE0002007490870074908800A4908701C
:102E40000021034880F8AD1100BF00BF00BF13E7A9
:102E500094090020A4000020A6000020B52B000843
:102E60009800002000007042A80000200000F442FA
:102E70000000684210B5174890F84800222803D097
:102E800015481649086010BD0020124981F8AC01B0
:102E9000D1F8B40112490AF00DFD044611490AF0B7
:102EA00015FC08D20B49886B4FF080410AF002FDF7
:102EB0000849086507E00749486B4FF080410AF070
:102EC00067F9044908650121024880F8AD1100BF87
:102ED000D9E7000094090020B52B000898000020D5
:102EE0000000B442CDCCCC3D10B5224890F848004B
:102EF000202803D020482149086010BD01201D4929
:102F000081F8AC01886B4FF07E510AF0D3FC044687
:102F10001848D0F8F01120460AF0D8FA08D8154918
:102F2000886B4FF07E510AF0C5FC124908651AE023
:102F30001049486B4FF07E510AF02AF904460D48BB
:102F4000D0F8F01120460AF0C1FB08D80949486BB7
:102F50004FF07E510AF01CF90649086503E0054868
:102F6000D0F8F01101650121024880F8AD1100BFD1
:102F7000C3E7000094090020B52B0008980000204A
:102F800010B50C4890F84800242803D00A480B4993
:102F9000086010BD0020074981F8AC01888F0AF055
:102FA00081FA044908650121024880F8AD1100BF8B
:102FB000EFE7000094090020B52B000898000020DE
:102FC00010B501214FF0C05006F01EFB012005F0A6
:102FD0007FFE002000F042F8002000F02BF800F007
:102FE0001FF8002005F074FE10BD10B5042000F09D
:102FF00027F84AF6AA21884201D1002010BD4FF0DF
:10300000FF30FBE710B5012005F062FE4AF6AA2169
:10301000042000F029F8002005F05AFE10BD000041
:103020000348008840F00100014908807047000013
:10303000346C0040014908607047000088860D42EA
:1030400008B501460020009003480090009808440D
:1030500000900098008808BD006C0040014908609D
:103060007047000000860D4208B500220092044A15
:103070000092009A02440092009A116008BD00007C
:10308000006C00400E4890F84800242817D00C48E7
:1030900090F84800252809D10948D0F8F401C0F378
:1030A000007060B920210648816408E00448D0F827
:1030B000F401C0F3007010B125210148816470470C
:1030C0009409002070B5044600250C4920460AF0FA
:1030D00031FA06460A490AF0EDFB05464FF07E51EB
:1030E00028460AF0F3FA01D84FF07E5505492846E4
:1030F0000AF0ECF900D8034D284670BDF7E4213EF4
:10310000666666400AD7233C70B50024002503F0AC
:10311000D3F8184818490861001588820820C8604B
:1031200014484860C014088108200860084603F06D
:103130003AF900F02DF802F0EDFD05464DB90F48C3
:103140000F4908600F4848600F4888600F48C86002
:1031500009E00A480A4908600A4848600A48886045
:103160000A48C86000BF00BF01F026FB04462046A5
:1031700070BD0000000C0140004900203333534073
:10318000F0480020333383401283C03EC53000082E
:1031900008B50121202006F047FA4020ADF80000D4
:1031A00004208DF8030002208DF8020069460548CE
:1031B00002F086F88020ADF800006946014802F070
:1031C0007FF808BD0014014001460846044A126811
:1031D000904203D9024A1268801A00E0002070472A
:1031E0007400002070B5002500BFFFF703F8054606
:1031F00000BF0648046800BF2846FEF7FFFF00BF77
:103200002046FFF7E1FF0646304670BD78000020FB
:1032100070B50025FFF7E6FF044600BFFEF7EAFFA2
:10322000054600BF00200449086000BF2846FEF79D
:10323000E5FF00BF204670BD7800002000B50948BA
:103240000088401C074908800748008818B900F02A
:1032500039F80649086004480088401C0249088083
:1032600000BD0000680000206A0000206C00002003
:1032700000B50F480088401E0D4A10801046008897
:10328000A0B900F01FF80B4A1060104600680A4A07
:103290001268811A09480068884201D20748016013
:1032A00007480068884201D20548016000BD00005F
:1032B0006A000020700000206C00002078000020D0
:1032C0007C0000200148406870470000001000E0CA
:1032D00030B502460B46002100244FF6FF7000BFB8
:1032E00012E0555C684000240AE000F0010525B1B9
:1032F00040104AF20105684000E04010651CECB245
:10330000082CF2DB4D1CA9B29942EADB30BD00006B
:103310002DE9F74F82B089461446484609F00CFF64
:103320000746224A224B09F083FC054609F070F952
:103330008146204920460AF0FDF8824609F0FCFE4D
:1033400007461A4A1A4B09F073FC054609F060F962
:1033500004461948016802980AF0ACFA824609F05E
:10336000EBFE0746154A164B09F062FC054609F0CC
:103370004FF902902146484608F01AFC009009F0E7
:10338000DBFE05460F4A104B09F052FC07460022AF
:103390000E4B09F06FF9824609F03AF90190DDE928
:1033A000011003F00FFA05B0BDE8F08FD5CC5A0A32
:1033B00048FB0F3F000080BFCC000020EC51B81E3E
:1033C00085EB713FD3DEE00B93A94C400080564063
:1033D00000B5C3B0002042900021419140913F913F
:1033E0003E913D913C913B913A9139913891379181
:1033F00036913591349133913291319130912F91B1
:103400002E912D912C912B912A91299128912791E0
:1034100026912591249123912291219120911F9110
:103420001E911D911C911B911A91FE48B0F86010DD
:103430003E91B0F862103D91B0F864103C91DDE926
:103440003C213E9802F0A0FC409040F26C7141910A
:1034500029E04FF4C871419890FBF1F201FB120092
:1034600010B94FF4B77118E04198C217199000EBEA
:10347000927082101998A0EB820060B96421419883
:1034800090FBF1F201FB120010B14FF4B77104E0B0
:1034900040F26D1101E040F26D113F9801443F91FF
:1034A0004198401C41903E9941988842D1DBDDE92A
:1034B0003F1001443F91DB48416838918168379162
:1034C000C1683691B0F866103B91B0F868103A9137
:1034D000B0F86A103991399809F0CCFF35903A98D4
:1034E00009F03FFBCDE91601359809F025FE0022D1
:1034F000CD4BCDE9120109F071F9CDE91401DDE9F7
:10350000162309F0B7F8CDE9180109F081F83590D4
:103510003B9809F026FBCDE91401359809F00CFE23
:103520000022C14BCDE9100109F058F9CDE9120193
:10353000DDE9142309F09EF80022BC4BCDE9160109
:1035400009F04CF9CDE9180109F062F835903F987F
:10355000401C09F08FFF3490B549369809F08CFE75
:103560000F9009F0E9FDCDE91201359809F0E4FD6D
:103570004FF08042AF4BCDE90E0109F07BF8CDE969
:103580001001DDE9122309F0EDFCCDE916013498B4
:1035900009F0D2FDCDE91401DDE9162309F06AF83E
:1035A000CDE9180109F034F83490A34934980AF0B1
:1035B00081F9A249199009F05FFE3390339809F020
:1035C000BBFD9F4A9F4BCDE90E0109F031FB9E4A9E
:1035D0009E4BCDE9100109F04DF8CDE91401339867
:1035E00009F0AAFDCDE91201DDE9142309F020FB61
:1035F000974A984BCDE9160109F03CF8CDE918013E
:1036000009F006F832904FF4B471329803F0D0FB11
:103610003290339809F090FD8F4A904BCDE90E011E
:1036200009F006FB8E4A894B373BCDE9100109F0C2
:103630008DFCCDE91401339809F07EFDCDE912012E
:10364000DDE9142309F0F4FA864A874BCDE9160127
:1036500009F010F8CDE9180108F0DAFF319033983D
:1036600009F06AFD814A824BCDE90E0109F0E0FACA
:10367000804A814BCDE9100108F0FCFFCDE914012F
:10368000339809F059FDCDE91201DDE9142309F061
:10369000CFFA7A4A7A4BCDE9160109F057FCCDE909
:1036A000180108F0B5FF30907648319909F042FFD3
:1036B00075490A9009F0E0FD0B9009F03DFD734A51
:1036C000734BCDE90C0109F0B3FACDE90E0108F016
:1036D0009FFF109008F008FE119009F02DFD6D4A33
:1036E0006D4BCDE9120109F0A3FACDE9160133982B
:1036F00009F022FD694A6A4BCDE9080109F098FA00
:10370000684A694BCDE90A0109F020FCCDE90E01B8
:103710004FF08040319909F00DFF5B49049009F0AA
:10372000ABFD059009F008FD584A594BCDE906015B
:1037300009F07EFACDE9080108F06AFF0A9008F066
:10374000D3FD0B9009F0F8FCCDE90C01DDE90E2367
:1037500009F06EFACDE91201339809F0EDFC534AF5
:10376000534BCDE9020109F063FA524A524BCDE9BD
:10377000040108F07FFFCDE90801339809F0DCFC73
:10378000CDE90601DDE9082309F052FA4B4A4C4B1A
:10379000CDE90A0109F0DAFBCDE90E013A49319889
:1037A00009F06AFD059009F0C7FC384A384BCDE9AD
:1037B000060109F03DFACDE9080108F029FF0A9059
:1037C00008F092FD0B9009F0B7FCCDE90C01DDE9A2
:1037D0000E2309F02DFACDE91001DDE9122308F0DE
:1037E00049FFCDE91401DDE9162308F043FFCDE9D7
:1037F000180108F00DFF2F902F99329809F0C8FC9E
:103800002E90339809F098FC2E4A2F4BCDE91401E5
:1038100009F00EFA2D4A2E4BCDE9160109F096FB60
:1038200058E000009409002000004E40000038409D
:103830000000C041D56C424164A1154A00AD0E475D
:10384000C0AB8A15DADE333F2F8672A21894E140AE
:1038500046CEC29E768771400CDB60F25025243F35
:103860002AC6F99BC91F0C3C7758764000D864FCE7
:103870006001813E03E35F521C0A063F80035D72D4
:10388000111C913F00004040000034434AD8124DC3
:10389000FB2109402C616D8C9DF0323FE31A9FC9DA
:1038A000FE791A3F958098840B79943FB75F3E5913
:1038B000315CED3EAEF36F97FDBA733FF6B2EDB4F7
:1038C00035A2FE3F068195438B389E40C3F5285CA8
:1038D0008F425F40CDE9180108F09AFE4290FE4900
:1038E000429809F0C9FC0B9009F026FCFB4AFC4BFE
:1038F000CDE90C0109F09CF9CDE90E0108F088FE34
:10390000109008F0F1FC119009F016FCF54AF64B06
:10391000CDE9120109F08CF9CDE916012E9809F0D4
:103920000BFCF24AF24BCDE9120109F01BFBCDE989
:103930001401DDE9162309F015FBCDE9180108F0A3
:1039400067FE2D90339809F0F7FBEA4AEA4BCDE980
:10395000000109F06DF9E94AE94BCDE9020109F0EE
:10396000F5FACDE90601339809F0E6FBCDE904014B
:10397000DDE9062309F05CF9E24AE34BCDE90801F1
:1039800008F078FECDE90C01339809F0D5FBCDE9BC
:103990000A01DDE90C2309F04BF9DC4ADC4BCDE9E7
:1039A0000E0109F0D3FA0022DA4BCDE9100108F03C
:1039B00015FF0022D84BCDE9120108F05BFE002272
:1039C000D44BCDE9140108F009FF0022D34BCDE917
:1039D000160108F04FFECDE9180108F019FE2C90F1
:1039E000BD49429809F048FC0B9009F0A5FBBB4A81
:1039F000BB4BCDE90C0109F01BF9CDE90E0108F034
:103A000007FE109008F002FA119009F095FBC44AE5
:103A1000C44BCDE9120109F00BF9CDE916012C9840
:103A200009F08AFBCDE91401DDE9162308F022FE36
:103A3000CDE9180108F0ECFD2B90A7492D9809F06D
:103A40001BFC099009F078FBA44AA54BCDE90A01BB
:103A500009F0EEF8CDE90C0108F0DAFD0F9008F05E
:103A600043FC9D4911902B9809F006FC099009F040
:103A700063FB9A4A9A4BCDE90A0109F0D9F8CDE9DE
:103A80000C0108F0C5FD0F9008F02EFC1090119964
:103A900009F050FD129007F0F9FF139009F04CFB6C
:103AA0008E4A8F4BCDE9140108F098FE00229E4B00
:103AB000CDE9160109F0BCF8CDE9180108F0A8FD20
:103AC0002A904FF080412B9809F0D6FB8249109044
:103AD00009F0D2FB119009F02FFB804A804BCDE911
:103AE000120109F0A5F8CDE9140108F091FD179035
:103AF00008F0D4FC4FF0804119902B9809F0BCFBE2
:103B00007549109009F0B8FB119009F015FB734A44
:103B1000734BCDE9120109F08BF8CDE9140108F0DF
:103B200077FD179008F0BAFC1890199909F002FD7A
:103B300029906949319809F09FFB079009F0FCFA38
:103B4000664A674BCDE9080109F072F800224FF090
:103B50008043CDE90A0109F06BF8CDE90C0108F0CA
:103B600057FD0E9008F0C0FB0F9009F0E5FACDE983
:103B70001201309809F0E0FACDE90E01309809F011
:103B8000DBFA0022694BCDE90A0109F051F8CDE9D1
:103B90000C01DDE90E2309F04BF8CDE91001DDE958
:103BA000122309F045F8CDE916014B49329809F086
:103BB00063FB039009F0C0FA484A494BCDE9040180
:103BC00009F036F800225A4BCDE9060109F030F829
:103BD000CDE9080108F01CFD0A9008F085FB0B9068
:103BE00009F0AAFACDE90E01299809F0A5FACDE964
:103BF0000A01299809F0A0FA00224E4BCDE90601EE
:103C000009F016F8CDE90801DDE90A2309F010F8FA
:103C1000CDE90C01DDE90E2309F00AF8CDE9120126
:103C20002D49329809F028FB039009F085FA2B4AB8
:103C30002B4BCDE9040108F0FBFF00224FF080433D
:103C4000CDE9060108F0F4FFCDE9080108F0E0FC39
:103C50000A9008F0DBF820490C90319809F00CFB31
:103C6000039009F069FA1D4A1D4BCDE9040108F0E3
:103C7000DFFFCDE9060108F0CBFC089008F034FB2B
:103C80000A904FF08140309909F054FC089029992E
:103C900009F050FC09900A9909F04CFC0B900C9922
:103CA00009F048FC0C490E90319809F0E5FA0390B0
:103CB00009F042FA094A0A4BCDE9040108F0B8FFBD
:103CC000CDE9060108F0A4FC089008F00DFB0A906D
:103CD0004FF0804030992FE0000034434AD8124D15
:103CE000FB210940F94ECC7A3194733F1FBAA0BE34
:103CF000654E773FD61A4AED45B45D3FBEA4315AB2
:103D00004755433FB81E85EB51684740A69BC420EA
:103D1000B072354000004E4000003A40000037408D
:103D2000F168E388B5F8643F008066400000F43F26
:103D3000000010400000E03F09F0FCFB09900A99E8
:103D400009F0F8FBFE490C90329809F095FA0190C1
:103D500009F0F2F9FB4AFC4BCDE9020108F068FFDB
:103D600000224FF08043CDE9040108F061FFCDE966
:103D7000060108F04DFC099008F0B6FA0A9029995E
:103D800009F0D8FB0B900C9909F094FD0D900E9959
:103D900009F0FEF90F9009F0CFF9CDE91001DDE946
:103DA000122309F0DFF8CDE91401DDE9162309F04B
:103DB000D9F8CDE9180108F02BFC4290429809F09F
:103DC000BBF9E04AE04BCDE9120108F007FD002203
:103DD000DE4BCDE9140108F02BFF0022DC4BCDE9CE
:103DE000160108F025FFCDE9180108F011FC289014
:103DF000D3492A9809F040FA079009F09DF9D14A71
:103E0000D14BCDE9080108F013FFCDE90A0108F014
:103E1000FFFB0D9008F042FBC9490F90379809F05D
:103E20002BFA079009F088F9C64AC74BCDE908017B
:103E300008F0FEFECDE90A0108F0EAFB0D9008F05B
:103E40002DFB0E900F9909F075FBBD4911902A9832
:103E500009F012FA059009F06FF9BA4ABA4BCDE9A8
:103E6000060108F0E5FECDE9080108F0D1FB0B9052
:103E700007F0CCFFB2490D90379809F0FDF9059095
:103E800009F05AF9AF4AB04BCDE9060108F0D0FE6F
:103E9000CDE9080108F0BCFB0B9007F0B7FF0C90D0
:103EA0000D9909F047FB0F90AA4807F0AFFF0E905D
:103EB0000F9909F0E1F91090119909F0FBFC1290AB
:103EC00007F056FD139009F037F99E4A9E4BCDE955
:103ED000140108F083FC00229C4BCDE9160108F088
:103EE000A7FECDE9180108F093FB27909A49369870
:103EF00009F020FB18904FF08140389909F01AFB27
:103F00009649159009F044FC1690289909F0D2FCC6
:103F10001790189909F03CF99149199009F0ACF9FA
:103F200026904FF08141279809F004FB8C491890A6
:103F300009F0A2F91990269909F02AFC25904FF072
:103F40008141279809F0F6FA8549189009F094F90B
:103F50001990269909F01CF924907F48369909F0A8
:103F6000E9FA19904FF08140389909F0E3FA7C4959
:103F70001790359809F0DEFA1590289909F008F99C
:103F80001690179909F004F91890199909F092FC04
:103F900023904FF4B461239802F00AFF239000218C
:103FA000239809F093FA09D24FF08141239809F040
:103FB00063F96349199009F07DFC08E04FF08141F5
:103FC000239809F059F95E49199009F073FC229081
:103FD0005B49229809F050F9079009F0ADF8594A69
:103FE000594BCDE9080108F023FECDE90A0108F09C
:103FF0000FFB0D9007F00AFF51490F902A9809F026
:104000003BF9059009F098F84E4A4F4BCDE906016F
:1040100008F00EFECDE9080108F0FAFA0B9007F05F
:10402000F5FE47490D90379809F026F9059009F0FB
:1040300083F8444A444BCDE9060108F0F9FDCDE987
:10404000080108F0E5FA0B9007F0E0FE0C900D99DE
:1040500009F070FA0E900F9909F06CFA3849119036
:104060002A9809F009F9079009F066F8354A364BA5
:10407000CDE9080108F0DCFDCDE90A0108F0C8FA35
:104080000D9008F031F92E490F90379809F0F4F8A7
:10409000079009F051F82B4A2B4BCDE9080108F0A5
:1040A000C7FDCDE90A0108F0B3FA0D9008F01CF93C
:1040B0000E900F9909F03EFA1090119909F068F8E6
:1040C000129007F055FC139009F036F81D4A1E4B6C
:1040D000CDE9140108F082FB00221C4BCDE916014A
:1040E00008F0A6FDCDE9180108F092FA21901D48CC
:1040F000219909F0DFFB20901149209809F0BCF8C4
:10410000139009F019F80F4A0F4BCDE9140108F08C
:104110008FFDCDE9160108F07BFA199008F0BEF981
:104120001F901F99084609F005FA19901F9909F088
:1041300001FA1E90DDE91E0109F0FCF9199013E067
:10414000000034434AD8124DFB21094000806640EC
:104150000000104041ECCA3F0000704200003444AF
:104160000000B4440000B4421F9909F0E3F91D9027
:10417000FE49209809F0AAFA02D200200146B8E0D0
:10418000FB49209809F0A2FA45D21D9808F0D4FF07
:1041900002460B46CDE91001F648F74908F01EFB30
:1041A000CDE914011E9808F0C7FF02460B46CDE981
:1041B0000C01F248F24908F011FBCDE91001F14978
:1041C000209809F059F8059008F0B6FFEE4AEF4B39
:1041D000CDE9060108F02CFDCDE9080108F018FA38
:1041E0000A9008F05BF90B9008F0A6FF02460B4618
:1041F000CDE90C01E648E74908F0F0FACDE90E01F7
:10420000DDE9102308F0AEFECDE91201DDE914234B
:1042100008F030FA6DE0209808F08EFF4FF066321B
:10422000DD4BCDE9140108F001FE43D2209808F0DF
:1042300083FFDA4ADA4BCDE9000108F0F9FCCF4AF6
:104240005242D84BCDE9020108F014FACDE906013B
:10425000209808F071FFCDE90401DDE9062308F09C
:10426000E7FCD14AD14BCDE9080108F003FACDE9CA
:104270000C01209808F060FFCDE90A01DDE90C236C
:1042800008F0D6FCC84ACA4BCDE90E0108F0F2F995
:10429000CDE91201209808F04FFFCDE91001DDE9CA
:1042A000122308F0C5FC0022C24BCDE9140108F02E
:1042B000E1F91EE0B349209808F0DEFF0D9008F008
:1042C0003BFFB14AB14BCDE90E0108F0B1FCCDE99D
:1042D000100108F09DF9129008F0E0F8139008F032
:1042E0002BFF02460B46CDE91401B348B34908F051
:1042F00075FA0022B24BCDE9160108F06FFACDE94C
:10430000180108F085F91C901C99209808F040FFCE
:104310001B900021229809F0D9F97CD29949219863
:1043200008F0AAFF039008F007FF974A974BCDE9E2
:10433000040108F07DFCCDE9060108F069F9099057
:1043400007F0D2FF8F490B90379808F095FF039044
:1043500008F0F2FE8C4A8D4BCDE9040108F068FCB0
:10436000CDE9060108F054F9099007F04FFD0A90D5
:104370000B9909F0DFF883490D902A9808F07CFF2B
:10438000039008F0D9FE804A804BCDE9040108F083
:104390004FFCCDE9060108F03BF9099007F0A4FFB6
:1043A00078490B90219808F067FF019008F0C4FE4F
:1043B000754A764BCDE9020108F03AFCCDE90401DB
:1043C00008F026F9079007F021FD6E49099037980B
:1043D00008F052FF019008F0AFFE6B4A6B4BCDE93D
:1043E000020108F025FCCDE9040108F011F907905D
:1043F00007F07AFF0890099909F09CF80A900B9948
:1044000009F058FA0C900D9908F036FF0E9007F05D
:10441000AFFA0F9000E01DE008F08EFE5A4A5B4BA9
:10442000CDE9100108F0DAF90022664BCDE912015E
:1044300008F0FEFB0022634BCDE9140108F01AF9E5
:10444000CDE9160108F0E4F84FF4B471199002F0C8
:10445000AFFCC7E04B49219808F00EFF039008F02D
:104460006BFE494A494BCDE9040108F0E1FBCDE977
:10447000060108F0CDF8099007F036FF41490B908E
:10448000379808F0F9FE039008F056FE3E4A3F4B7D
:10449000CDE9040108F0CCFBCDE9060108F0B8F83D
:1044A000099007F0B3FC0A900B9909F043F83549DD
:1044B0000D902A9808F0E0FE039008F03DFE324A85
:1044C000324BCDE9040108F0B3FBCDE9060108F059
:1044D0009FF8099007F008FF2A490B90219808F0EF
:1044E000CBFE019008F028FE274A284BCDE90201B7
:1044F00008F09EFBCDE9040108F08AF8079007F068
:1045000085FC20490990379808F0B6FE019008F024
:1045100013FE1D4A1D4BCDE9020108F089FBCDE9D0
:10452000040108F075F8079007F0DEFE089009997D
:1045300009F000F80A900B9909F0BCF90C900D995C
:1045400008F09AFE0E9007F013FA0F9008F0F4FDB1
:104550000D4A0E4BCDE9100108F040F90022194B2D
:10456000CDE9120108F064FB00222DE00000AA4210
:104570000000A0403677F4BF5C8B163FEC51B81EAC
:1045800085EBB13F000034434AD8124DFB2109406E
:10459000CDCCCCCCCC0C4D406666E2BF8D976E1274
:1045A00083C0E63F7A9429C09A99999999D959403C
:1045B000993180C0001C9B401283C0CAA1C534C081
:1045C0000020AC4000806640214BCDE9140108F08A
:1045D000BDFCCDE9160108F01BF84FF4B471199039
:1045E00002F0E6FB1A901B49259808F0A3FF1A4930
:1045F000C1F8E0011749249808F09CFF1649C1F85A
:10460000E4011A98C1F8EC011B9808F095FD00220E
:10461000124BCDE9180108F009FC04D810490E48E6
:10462000C0F8E81112E01B9808F086FD00220D4B3F
:10463000CDE9180108F0C0FA04D20B490648C0F8C9
:10464000E81103E004491B98C1F8E80143B000BD3C
:1046500000E080400000C041940900200040564026
:104660000000B242004056C00000B2C210B504467D
:10467000012C0DD04448007800F0010008B900F08A
:1046800013F9002001F006FE00204049087010BD1B
:104690003F48007830B101281ED0022844D00328BA
:1046A0006BD159E03B49D1F8D8013B4908F00EFFE6
:1046B0000ED83849D1F8C401384909F007F803D8B1
:1046C00001203349087006E003203149087002E0F8
:1046D00002202F49087054E02B48007800F00100B8
:1046E00008B900F0E1F82B49D1F8D8014FF0824128
:1046F00008F0ECFF06D92749D1F8C401284908F091
:10470000E5FE08D8002001F0C5FD00201F49087013
:104710001F49087007E0012001F0BCFD01201B4982
:1047200008701B4908702CE0002001F0B3FD002048
:10473000164908701448007800F0010008B100F034
:1047400031F811480078C0F3001008B100F098F873
:1047500000200F49087014E0002001F09BFD0020AC
:104760000A4908700848007800F0010008B900F014
:104770009BF800200649087003E0002004490870F7
:1047800000BF00BF00BF82E7AA000020AB000020EE
:10479000B6000020940900200000A0400000F04175
:1047A0000000E04110B510231422D021014801F08F
:1047B00013FF10BD004900202DE9F04100242C48D2
:1047C000C06810B9601EBDE8F0814FF488731422F0
:1047D000D021284801F000FF044600232922D021DF
:1047E000244801F0F9FE044411231522D021214868
:1047F00001F0F2FE04441E4988684FF0834108F03E
:1048000099FE07464FF07E5109F054F8064608F02D
:1048100011FE85B22B461A22D021164801F0DCFE8B
:10482000044413494868144909F044F807461349F9
:1048300008F080FE064608F0FDFD85B22B461B22DF
:10484000D0210C4801F0C8FE04444FF461631D22DE
:10485000D021084801F0C0FE044445F260431E2206
:10486000D021044801F0B8FE04442046ABE7000024
:10487000F048002000490020000074400000A042E1
:1048800010B54FF488731422D021064801F0A4FE1D
:10489000142000F0AFF910231422D021014801F0B8
:1048A0009BFE10BD0049002010B54FF48873142200
:1048B000D021024801F090FE10BD00000049002008
:1048C00070B52A4890F8480000F0F000602805D143
:1048D000264890F8480000F00F0018B124482549F8
:1048E000086070BD0020214981F8AC01486B4FF091
:1048F0007E5108F04DFC04461C49B1F8420008F016
:10490000D1FD0546214608F0E1FD08D21749486B64
:104910004FF07E5108F03CFC1449086520E0134933
:10492000886B4FF07E5108F0C5FF04460F49B1F87F
:10493000420008F0B7FD0546214608F0C7FE08D240
:104940000A49886B4FF07E5108F0B4FF07490865AB
:1049500006E00649B1F8420008F0A4FD03490865E5
:104960000121024880F8AD1100BFBAE79409002088
:10497000196700089400002010B54FF480710248B8
:1049800000F07DFD10BD0000000801400120164927
:104990008882002008605A2088872D20A1F84200D4
:1049A00012484863124888635A20C887A1F840001B
:1049B000400708610F4888600F4848604FF0824008
:1049C000C8600E4848620E480862002088623C2099
:1049D000C885122088854FF4967048860E20088678
:1049E00008488861704700009409002000003442A4
:1049F000000007430000F0410000F242CDCC8C40A3
:104A00009A99F93F0000404010B5022000F0A8F844
:104A1000002864D03248006820F002003049086065
:104A200000212F480838FDF75AFE00212C4808388D
:104A3000FDF7B6FD022000F079F800202949087042
:104A400031E000212848274A127840F8221000203F
:104A5000264908701EE02549097801EB8101214AA9
:104A600012781144224A32F8110008F01BFD044666
:104A70001D481C4A127850F82210204608F088FB86
:104A80001949184A127841F8220018480078401C49
:104A900016490870154800780A28DCDB11480078B0
:104AA000401C104908700F4800780528C9DB0E48E3
:104AB0000068104908600C4840680F4908600A48BF
:104AC00080680E4908600848C0680D4908600648BB
:104AD00000690C49086000210B4800F035F810BD52
:104AE0000824014018010020604E00201901002018
:104AF000FC4D00201C01002020010020240100208A
:104B00002C010020280100200800024010B50446B6
:104B10000021054800F018F80348001D0460012139
:104B2000001F00F011F810BD5804024000F0805141
:104B300011B10349086001E0024948607047000074
:104B4000040402400000024021B1026842F0010268
:104B5000026004E002684FF6FE731A40026070477C
:104B600001460020002201F0805313B1054B1A6862
:104B700001E0054B1A6802EA01030BB1012000E0D5
:104B80000020704700040240000002401AB1036890
:104B90000B43036002E003688B430360704710B56A
:104BA0000022026847F6F0739A430C6A8B6823432D
:104BB0000C6923434C6923438C692343CC69234309
:104BC0004C6A23438C6A23431A430260CB684360D8
:104BD0000B6883604B68C36010BD0C2105E00C219D
:104BE00000BF0A1EA1F10101FBD1021EA0F10100CC
:104BF000F5D1704706E0482100BF0A1EA1F101036C
:104C000059B2FADA021EA0F1010358B2F3DA704782
:104C100010B51449D1F8C801134908F057FC15D84C
:104C200012480078401C1149087008460078142882
:104C300017DB002008700B48D0F8F40120F08060EA
:104C400000F180600749C1F8F4010AE0002007493B
:104C500008700448D0F8F40120F080600149C1F8E0
:104C6000F40110BD9409002000007041C80000202C
:104C700010B56C4890F8AF01012863D100206A4953
:104C800008806A480088401C6849088008460088F7
:104C9000052804DA6348D0F8B40165490860634820
:104CA0000088B0F5167F42DD0020604908805D482D
:104CB000D0F8B4115E48006808F0FCFD04464FF0DF
:104CC0003F4108F003FC09D25648D0F8F40120F027
:104CD0000200801C5349C1F8F40107E05148D0F8A4
:104CE000F40120F002004F49C1F8F4014D48D0F81A
:104CF000B4114F48006808F0DDFD04464FF07E51C6
:104D000008F0E4FC0BD34748D0F8B41148480068D9
:104D100008F0D0FD0446474908F0D8FB08D24148C6
:104D2000D0F8F40120F020003E49C1F8F40177E00A
:104D30003C48D0F8F40120F0200020303949C1F877
:104D4000F4016DE0374890F8AF01022863D10020EC
:104D50003649088034480088401C3349088008469A
:104D60000088052804DA2F48D0F8B40130490860DB
:104D70002D480088B0F5167F52DD00202A490880B2
:104D80002848D0F8B4112A48006808F093FD04467A
:104D90004FF07C5108F09AFC09D22248D0F8F40177
:104DA00020F00200801C1F49C1F8F40107E01D48F3
:104DB000D0F8F40120F002001A49C1F8F4011948B2
:104DC000D0F8B4111A48006808F074FD04464FF09A
:104DD0007E5108F07BFC0BD31248D0F8B411144874
:104DE000006808F067FD0446124908F06FFB08D21E
:104DF0000C48D0F8F40120F020000A49C1F8F40171
:104E00000EE00848D0F8F40120F0200020300549D9
:104E1000C1F8F40104E00020044908800249088038
:104E200010BD000094090020C6000020C40000202E
:104E3000C0000020000080BF70B54D4890F8AE0162
:104E4000002864DD4A4A9169D2F8B80108F03EFCB6
:104E50000CD94748D0F8B811464808F06BFB044617
:104E600043488169204608F031FC1DD800204249A2
:104E7000087042480078401C404908700846007895
:104E800007F086FE044600223D4B07F0CFFF0BD211
:104E900000203A4908703648D0F8F40120F00100AB
:104EA000401C3349C1F8F40131498869354908F09B
:104EB00041FB04462E48D0F8B811204608F006FC05
:104EC0002AD82B498869304908F034FB0446284821
:104ED000D0F8B811204608F0F9FA1DD82648007815
:104EE000401C2549087008460078642814DD00201D
:104EF0000870224908701E48D0F8F40120F0010023
:104F00001B49C1F8F40100202049087004E000208A
:104F10001949087019490870154890F8F40100F013
:104F2000010008B31A480088401C19490880084647
:104F30000088B0F5966F1ADD0020088013480078CD
:104F4000401C1249087008460078082808DA08480A
:104F5000D0F8F40120F001000549C1F8F40106E0A1
:104F600009200A49087002E000200949088070BD44
:104F700094090020000080BFB8000020B900002084
:104F800000002C406666663F666666BFBA00002079
:104F9000BC00002010B53A49886B4FF0804108F002
:104FA000F7F804463648D0F8B411204608F08EFAD7
:104FB00014D234480078401C324908700846007802
:104FC00032285CDD342008702D48D0F8F40120F040
:104FD000080008302A49C1F8F40150E02849486B1C
:104FE0004FF0804108F066FC04462548D0F8B41123
:104FF000204608F06BFB14D222480078401C21495F
:10500000087008460078322839DD342008701C48C2
:10501000D0F8F40120F00400001D1949C1F8F40192
:105020002DE01749886B4FF07E5108F043FC044691
:105030001348D0F8B411204608F048FB1FD210499D
:10504000486B4FF07E5108F0A3F804460C48D0F8A6
:10505000B411204608F03AFA11D20020094908702C
:105060000748D0F8F40120F004000549C1F8F40124
:105070000846D0F8F40120F00800C1F8F40110BD92
:1050800094090020BE00002010B500F0E1F83520A2
:1050900000F01EF800240AE00B4901EBC42000F0E8
:1050A0001DF800BF00F05AF80128FBD0641C502CFA
:1050B000F2D3064800F012F800BF00F04FF80128C4
:1050C000FBD000F065F810BD00A0020800F0070852
:1050D0000149C860704700000020024030B5044616
:1050E00004254FF4302000F0BFF80546042D17D1F9
:1050F0000C48006940F002000A4908610846446112
:10510000006940F0400008614FF4302000F0ACF836
:1051100005460448006941F6FD71084001490861EF
:10512000284630BD0020024004200B49C96801F028
:10513000010109B101200EE00749C96801F004012D
:1051400009B1022007E00449C96801F0100109B162
:10515000032000E0042070470020024004200B4997
:10516000C96801F0010109B101200EE00749C968D1
:1051700001F0040109B1022007E00449C96801F007
:10518000100109B1032000E0042070470020024014
:105190000348006940F08000014908617047000041
:1051A0000020024070B504460D460426F00200F0CF
:1051B0005BF80646042E11D10948006940F0010051
:1051C000074908612580F00200F04EF806460448C1
:1051D000006941F6FE71084001490861304670BD22
:1051E0000020024078B506460C46042500200090B9
:1051F000E80200F039F80546042D24D1134800696F
:1052000040F00100114908613480E80200F02CF8F8
:105210000546042D10D1B01C0090200C0099088088
:10522000E80200F021F805460848006941F6FE71E1
:1052300008400649086106E00448006941F6FE712D
:10524000084002490861284678BD0000002002405D
:105250000248034948600348486070472301674596
:1052600000200240AB89EFCD00B502460423FFF7D2
:105270005BFF034603E0FFF757FF0346521E012B77
:1052800001D1002AF7D102B90523184600BD00005C
:1052900010B500F073FF4FF449400849A1F8A80188
:1052A00000F0D0FD0549B1F8A81108430349A1F861
:1052B000A80107210148A0F8AA1110BD94090020F7
:1052C0002DE9F0410246002500260020002300249D
:1052D000002791F803C00CF00F0591F803C00CF003
:1052E000100CBCF1000F03D091F802C04CEA050588
:1052F00091F800C0BCF1000F31D0146800202BE001
:105300004FF0010C0CFA00F3B1F800C00CEA0306F0
:105310009E4220D183004FF00F0C0CFA03F7BC43E0
:1053200005FA03FC4CEA040491F803C0BCF1280F11
:1053300006D14FF0010C0CFA00FCC2F814C00AE0D0
:1053400091F803C0BCF1480F05D14FF0010C0CFAE5
:1053500000FCC2F810C0401C0828D1D31460B1F87A
:1053600000C0BCF1FF0F34DD546800202EE000F1D6
:10537000080C4FF0010808FA0CF3B1F800C00CEA71
:1053800003069E4221D183004FF00F0C0CFA03F765
:10539000BC4305FA03FC4CEA040491F803C0BCF1D9
:1053A000280F05D100F1080C08FA0CF8C2F8148097
:1053B00091F803C0BCF1480F07D100F1080C4FF081
:1053C000010808FA0CF8C2F81080401C0828CED357
:1053D0005460BDE8F0810000F0B50A4600230024C7
:1053E0000021002500F00046B6F1004F02D11D4E0D
:1053F000F16901E01B4E7168C0F3034583B200F40C
:105400004016B6F5401F08D121F07061154E766840
:1054100026F07066134F7E6012E000F48016B6F539
:10542000801F06D1032606FA05F4A14341F07061FE
:1054300006E0460D360103FA06F6B14341F070610D
:1054400022B1460D360103FA06F6314300F000465C
:10545000B6F1004F02D1034EF16101E0014E7160DF
:10546000F0BD0000000001400246002093680B40A0
:105470000BB1012000E000207047416170470161DD
:105480007047000000487047C44600202DE9F84FDF
:1054900083460F460024002500266946232005F098
:1054A000DFF99DF8000004436946222005F0D8F991
:1054B000200204B29DF80000044369462B2005F049
:1054C000CFF99DF80000054369462A2005F0C8F988
:1054D000280205B29DF80000054369462D2005F01D
:1054E000BFF99DF80000064369462C2005F0B8F985
:1054F000300206B29DF8000006436946182005F008
:10550000AFF99DF80000382813D1304607F0B2FFFC
:105510008046284607F0AEFF8146204607F0AAFFE6
:10552000824642464946FDF7F3FE38600020BDE85A
:10553000F88F4FF0FF30FAE72DE9F04F91B04FF0C0
:10554000000AB549D1F8E80107F0F6FD0446B34A70
:10555000B34B07F06BFC7DD8AF49D1F8EC01B149F2
:1055600008F0A8F9B0490E9007F086FE834607F0D0
:10557000E3FD0646AD4AAE4B07F05AFB044607F082
:1055800047F8814606F042FC8046A349D1F8E8017D
:10559000A54907F071FE834607F0CEFD0646A34AF3
:1055A000A34B07F045FB044607F032F8814606F0AE
:1055B00075FF41460F9006F0FBFA8246504607F011
:1055C000BBFD8046994A9A4B07F008F9064600222F
:1055D000984B07F02DFB044607F01AF882468E49D7
:1055E000D1F8EC0107F0A8FD04460022914B07F02A
:1055F000E3FA7DD88848816A504608F067F879D286
:105600008D49504608F062F874D28348816A50464A
:1056100008F050F984490E9007F02EFE0F9007F025
:105620008BFD0646814A824B07F002FB044606F0DA
:10563000EFFF834606F058FE81467748416A4846A8
:1056400007F078FF80467448016A404608F03EF84B
:1056500005D800E0DBE0504611B0BDE8F08F6E48A1
:10566000816A504608F026F96F49029007F004FE5F
:10567000039007F061FD6D4A6D4BCDE9040107F021
:10568000D7FACDE9060106F0C3FF089006F02CFE1C
:1056900083466148416A584607F04CFF09905E48CE
:1056A000016A099807F0E8FD0A9006F0EFF90B90FF
:1056B00007F042FD5D4A5E4BCDE90C0107F08EF824
:1056C000064600225B4B07F0B3FA04460D465549E7
:1056D000504607F05DFD064607F02EFD22462B469C
:1056E000CDE90E0107F03EFC804606F091FFB3E7DE
:1056F00005E0FFE74849888F07F0D4FEACE746484D
:10570000816A494807F044FD0446514607F0DEFF30
:1057100078D24A49504607F0D9FE73D23E4A516AC0
:10572000106A07F0A9FD51460F903F4808F0C2F8F3
:105730000D903948816A0D9807F02AFD83463A4951
:1057400007F09AFD0E9007F0F7FC0646374A384BF3
:1057500007F06EFA044606F05BFF814606F0C4FDD2
:1057600080460F9907F0B2FF01D8504674E72A48E7
:10577000816A504608F09EF82B49019007F07CFDA5
:10578000834607F0D9FC294A294BCDE9020107F0ED
:105790004FFACDE9040106F03BFF814606F0A4FD77
:1057A00007901D48416A079807F0C4FE08901A4800
:1057B000016A089807F060FD804606F067F90990D5
:1057C00007F0BAFC194A1A4BCDE90A0107F006F8AE
:1057D00006460022174B07F02BFA04460D461149E6
:1057E000504608F067F8064607F0A6FC22462B460E
:1057F000CDE90C0106F03EFFCDE90E0106F008FFF1
:105800002AE7FFE70449888F07F04CFE24E70249A6
:10581000888F07F047FE1FE7940900209A9999990D
:105820009999B93F0000B442000034434AD8124D60
:10583000FB210940008066400000404000003143E9
:1058400038B5044600256B463422D0213F4800F08D
:10585000D1FD054615B14FF0FF3038BDBDF8000051
:1058600000F4807088B1207820F00100401C207086
:10587000207820F002002070207820F004002070B2
:10588000207820F00800207030E0207820F001001F
:105890002070BDF8000000F0800028B1207820F0D2
:1058A0000200801C207003E0207820F002002070AD
:1058B000BDF8000000F0400028B1207820F004007E
:1058C000001D207003E0207820F004002070BDF857
:1058D000000000F0180028B1207820F008000830FF
:1058E000207003E0207820F008002070BDF8000050
:1058F00000F0040028B1207820F010001030207053
:1059000003E0207820F010002070BDF8000000F0C7
:10591000020028B1207820F020002030207003E021
:10592000207820F020002070BDF8000000F0010079
:1059300028B1207820F040004030207003E020782B
:1059400020F040002070002087E700000049002080
:105950002DE9F843044600256B463D22D0210D4831
:1059600000F048FD05468DB9BDF9000007F082FD45
:105970008046094907F0DEFD07464FF0834107F0F6
:105980007BFC0646054907F077FC20602846BDE809
:10599000F883000000490020DC80BB3F00007A440F
:1059A00010B50024694800F0C7F904446748001F97
:1059B000FFF7CEFF04446548083000F0E9F80444DE
:1059C0006348FFF73DFF04445CB90020614908705B
:1059D0006148D0F8F40120F000405F49C1F8F401BB
:1059E0001AE05C4801780078401C5A4A107005297A
:1059F00012DD0520114608705748D0F8F40120F058
:105A0000004000F100405449C1F8F401002152481F
:105A1000C0F8D011C0F8CC114D480078C0F3401048
:105A200058B94B480078C0F3801030B94A49D1F8D2
:105A3000D0014A4907F04AFD18D80020484908809B
:105A400048480088401C47490880084600881428B8
:105A500029DB002008804048D0F8F40120F00050F5
:105A600000F100503C49C1F8F4011CE03A49D1F87A
:105A7000D0013D4907F02AFE15D800203949088099
:105A800037480088401C364908800846008864284A
:105A900009DB002008803048D0F8F40120F00050E5
:105AA0002D49C1F8F4012C4890F8AE01002844D1EA
:105AB0002949D1F8D0012D4907F008FD19D8002057
:105AC0002B4908802B480088401C2A49088008463A
:105AD0000088B0F5167F30DB002008801E48D0F823
:105AE000F40120F0805000F180501B49C1F8F4010E
:105AF00023E01949D1F8D0011F4907F0E7FD17D875
:105B000000201C4908801A480088401C1849088059
:105B100008460088B0F5967F0FDB002008800E480D
:105B2000D0F8F40120F080500B49C1F8F40104E0F2
:105B300000200F4908800F4908800749D1F8D0019B
:105B400000F01CF80449C1F8D40110BD640B00201A
:105B5000AA000020AC000020940900200000B04101
:105B6000B2000020B40000200000BC410000C4418D
:105B7000B0000020AE0000200000D44110B5044663
:105B80000248C1682046884710BD0000F048002048
:105B90002DE9FE4F04464FF0000A02AB4022D0210F
:105BA000484800F027FC8246BAF1000F23D1BDF926
:105BB000080007F05FFC0746434907F0E9FD05468A
:105BC000BDF9080007F056FC0746404907F0B2FC53
:105BD0000646294607F050FB81463D49484607F0F6
:105BE00075FC09D849463B4807F0A4FC05463A49EC
:105BF00007F0CEFA206062E03549484607F066FDBE
:105C00000ED23249484607F061FC09D8494633486C
:105C100007F090FC0546324907F0BAFA20604EE0E2
:105C20002A49484607F052FD18D22E49484607F047
:105C30004DFC13D8484607F07FFA07462A4A2B4BFB
:105C400006F0F6FF05464FF00042294B06F012FD24
:105C5000CDE9000106F0DCFC206030E02149484637
:105C600007F034FD0ED22349484607F02FFC09D82F
:105C70004946214807F05EFC0546204907F088FAAE
:105C800020601CE01B49484607F020FD0ED21C494D
:105C9000484607F01BFC09D849461A4807F04AFC59
:105CA0000546194907F074FA206008E0494617488C
:105CB00007F040FC0546164907F06AFA2060504696
:105CC000BDE8FE8F0049002000AAAA46000020413E
:105CD0009A999940B0031CC19358B44213F271C011
:105CE000E9A67642CDCC644164CC5D4BC88700C048
:105CF000E9A646403333B3418885A2BFDB7906422B
:105D00000000E441D34D62BF1D5AC9414F1EB6BECB
:105D1000DD24EC4010B5002440210648FFF7A4FB29
:105D200004436006040E80210248FFF79DFB0443F4
:105D3000204610BD001401402DE9F843044600251B
:105D40006B463A22D0210C4800F054FB054685B939
:105D5000BDF9000007F08EFB8046084907F0EAFB1A
:105D60000746074907F0E6FB0646064907F084FAAE
:105D700020602846BDE8F883004900200000E0408C
:105D8000DBE0443E00007A44F0B50346144620466A
:105D90006FF00105DE1703EB9676B610A3EB8606CF
:105DA0002EB9642693FBF6F706FB173636B94FF487
:105DB000C87693FBF6F706FB17360EB94FF0FF35A2
:105DC000032906DA012901D1002200E01F22104434
:105DD0001BE007290BDC0A4601EBD27677104E1E3A
:105DE000C6EB061607EB46062E4430440DE005F1DF
:105DF000D606A1F10807C7EB071706EB4707CA1F2E
:105E000002EBD27607EB66063044F0BD70B5074969
:105E10000748006807F08EFB0546064907F08AFB35
:105E20000446054907F028FA70BD0000333353409B
:105E300024010020BE9F4E410000204700487047CB
:105E40008C48002010B500244FF400710A48FFF779
:105E50000BFB04436006040E4FF480710648FFF705
:105E600003FB04436006040E80210348FFF7FCFA9D
:105E70000443204610BD00000018014070B50949D8
:105E80000948006807F056FB06464FF08B4107F0C3
:105E9000F3F90546054907F00DFD0446044907F0EE
:105EA000EBF970BD000004421C01002000002543F6
:105EB000000030410146C1EBC100024A02EB800004
:105EC000007E7047184900200146C1EBC100024A1C
:105ED00002EB8000807E70471849002070B50749AA
:105EE0000748006807F026FB0546064907F022FB35
:105EF0000446054907F0C0F970BD00003333534034
:105F000020010020BE9F4E410000204770B5094986
:105F10000948006807F00EFB06464FF08B4107F07A
:105F2000ABF90546054907F0C5FC0446044907F0EE
:105F3000A3F970BD000004422C010020000025439D
:105F40000000304170B509490948006807F0F2FACD
:105F500006464FF08B4107F08FF90546054907F0DB
:105F6000A9FC0446044907F087F970BD000004420B
:105F7000280100200000254300003041F8B5044608
:105F800000266B46002292210F4800F033FA0646A5
:105F9000BEB99DF80150BDF80000000200B20090AB
:105FA000BDF8000000F47F4000B20090BDF9000091
:105FB00028430090BDF90000C11700EB11610912E0
:105FC00021803046F8BD0000744E00202DE9FC47CA
:105FD00005460E4617469846DDE90A9A0024002039
:105FE000009001904FF480716348FFF746FA4FF438
:105FF00000716148FFF743FA80215F48FFF73DFADF
:106000000A20FEF7EAFD00BF5BE04FF480715A48BA
:10601000FFF735FA0A20FEF7E0FD182C18DA4021C8
:106020005548FFF721FA012841D12046E11704EB3A
:106030005171C910A4EBC102012191406A4602EBE3
:10604000E402127811436A4602EBE40211702EE07A
:106050001C2C10DA40214848FFF706FA012826D107
:106060009DF80300A4F1180101228A401043C0B238
:106070008DF803001BE0342C19DA40213E48FFF76D
:10608000F3F9012813D1201DC11700EB5171C9107C
:10609000A0EBC102012191406B46221D03EBE202FD
:1060A00012781143CAB2211D03EBE1010A704FF4CB
:1060B00080713148FFF7E1F90A20FEF78EFD601C80
:1060C000C4B2342CA1DB4FF400712B48FFF7D5F993
:1060D0009DF8000000F00F009DF80010C1F30211C0
:1060E00001EB810100EB410028809DF8010000F0E8
:1060F0000F009DF80110C1F3021101EB810100EBCB
:10610000410030809DF8020000F00F009DF8021061
:10611000C1F3011101EB810100EB410038809DF8D2
:10612000040000F00F009DF80410C1F3011101EB11
:10613000810100EB4100A8F800009DF8050000F087
:106140000F009DF80510C1F3001101EB810100EB78
:106150004100A9F800009DF8060000F00F009DF82E
:106160000610090901EB810100EB410000F2DA7031
:10617000AAF80000BDE8FC870010014008B5012125
:10618000402003F051FA8020ADF8000004208DF883
:10619000030002208DF8020069460A48FFF790F8D4
:1061A0004FF48070ADF8000069460648FFF788F8A4
:1061B0004FF40070ADF8000069460248FFF780F820
:1061C00008BD00000018014018B9054A12880A806D
:1061D00004E0012802D10A88014B1A8070470000B0
:1061E000CA00002017481849086018484860184835
:1061F00088601848C86018480861184848611848FD
:1062000088611848C861184808624862174888625F
:106210001748C862174808631748486317488863D7
:106220001748C86310480864164848640E488864D4
:10623000C86415480865154848651548C8650A4882
:1062400008667047759700088C4800207F97000803
:1062500099970008759F0008A19E0008B59D000849
:106260001DA700088DA10008C961000851A40008FD
:1062700079A3000859A20008B9A2000819A30008D0
:10628000E5A30008F9990008F9A7000819A8000873
:106290009198000810B50446012C04D181020548EC
:1062A000FFF7EDF804E04FF480610248FFF7E5F8EE
:1062B00010BD00000018014008B50121402003F086
:1062C000B3F94FF48060ADF8000010208DF80300A2
:1062D00002208DF8020069460448FEF7F1FF4FF4F2
:1062E00080610248FFF7C9F808BD000000180140AE
:1062F00070B504460025A18A2069FFF7BEF8218900
:106300006068FFF7BCF80120FEF774FCA18A2069E1
:10631000FFF7B5F80320FEF76DFC21896068FFF7F1
:10632000A3F8012800D10125A18A2069FFF7A5F86B
:106330000120FEF75FFC284670BD70B504460D468F
:10634000A18A2069FFF799F80120FEF753FC218903
:106350006068FFF794F800202870072620E0A18AE3
:106360002069FFF78AF80120FEF744FCA18A206922
:10637000FFF785F80320FEF73DFC21896068FFF7F1
:1063800073F8012803D12978B04001432970A18A0C
:106390002069FFF772F80220FEF72CFC701E46B24F
:1063A000002EDCDA70BD38B504460121206803F008
:1063B0003BF90121E06803F037F92089ADF80000CE
:1063C00014208DF8030003208DF8020069466068F0
:1063D000FEF776FF21896068FFF751F8A08AADF8D3
:1063E000000069462069FEF76BFFA18A2069FFF76C
:1063F00046F838BD2DE9F84380460E4617461C4640
:1064000000250020208006F0FE06404600F0ADF892
:106410003146404600F03EF84046FFF769FF00B1C4
:106420006D1E3946404600F035F84046FFF760FFE4
:1064300000B16D1E46F00106404600F096F8314668
:10644000404600F027F84046FFF752FF00B16D1EAE
:1064500069464046FFF771FF20889DF80010084309
:106460002080404600F049F869464046FFF765FF46
:1064700020889DF800104FF47F4202EA0121084372
:106480002080404600F055F8404600F086F8284647
:10649000BDE8F8832DE9F04104460E4601270725A3
:1064A00027E0A18A2069FEF7E8FF0120FEF7A2FBA2
:1064B00046FA05F000F0010020B121896068FEF77E
:1064C000DEFF03E021896068FEF7D7FF0120FEF7B9
:1064D00091FBA18A2069FEF7D2FF0520FEF78AFB17
:1064E000A18A2069FEF7C9FF0120FEF783FB681E21
:1064F00045B2002DD5DABDE8F08110B50446A18A79
:106500002069FEF7BAFF21896068FEF7B6FF012017
:10651000FEF770FBA18A2069FEF7B1FF0520FEF7A8
:1065200069FBA18A2069FEF7A8FF0120FEF762FB44
:1065300010BD10B50446A18A2069FEF79EFF21898F
:106540006068FEF79CFF0120FEF754FBA18A2069DA
:10655000FEF795FF0520FEF74DFBA18A2069FEF7A7
:106560008CFF0120FEF746FB10BD10B504462189C3
:106570006068FEF784FF0220FEF73CFBA18A2069D9
:10658000FEF77DFF0220FEF735FB21896068FEF7EC
:1065900074FF0220FEF72EFB10BD10B50446A18A41
:1065A0002069FEF76AFF0120FEF724FB218960685D
:1065B000FEF763FF0120FEF71DFBA18A2069FEF7AD
:1065C0005EFF0220FEF716FB21896068FEF757FF89
:1065D0000120FEF70FFB10BD2DE9F04180460E466D
:1065E00017461D46002406F0FE064046FFF7BDFF95
:1065F00031464046FFF74EFF4046FFF779FE00B1B7
:10660000641E39464046FFF745FF4046FFF770FEDF
:1066100000B1641EE9B24046FFF73CFF4046FFF779
:1066200067FE00B1641E290A4046FFF733FF40466B
:10663000FFF75EFE00B1641E4046FFF7AEFF204646
:10664000BDE8F0812DE9F04180460D4616461F4613
:10665000002405F0FE054046FFF787FF2946404627
:10666000FFF718FF4046FFF743FE00B1641E3146B6
:106670004046FFF70FFF4046FFF73AFE00B1641EA9
:1066800039464046FFF706FF4046FFF731FE00B1AE
:10669000641E4046FFF781FF2046BDE8F08110B53B
:1066A000012003F059F800BF612003F037F80028FB
:1066B000FAD045F2555000F029F8042000F01AF8FD
:1066C0004FF47A6000F01CF800F00CF800F002F8CB
:1066D00010BD00004CF6CC40014908607047000036
:1066E000003000404AF6AA200149086070470000C7
:1066F0000030004001494860704700000030004011
:10670000014988607047000000300040014908607E
:1067100070470000003000400021234880F8AD1190
:10672000806CFF2802D1204881643CE01E4890F82C
:10673000480000F0F000202803D11C481C490860E4
:1067400031E0194890F8480000F0F000102803D11B
:1067500018481749086026E0134890F8480000F0F0
:10676000F000402803D11448114908601BE00E488E
:1067700090F8480000F0F000802803D10F480C4941
:10678000086010E0084890F8480000F0F000602829
:1067900003D10B480649086005E0002102488164E6
:1067A000D0F8F0110165704794090020512B0008C2
:1067B00094000020296D0008DD6C000841290008C4
:1067C000C14800082DE9FE4F05460C46DFF8D4917C
:1067D000DFF8D4A1DFF8D4B14946284606F0AAFE76
:1067E000074673480168484606F0A4FE8046714893
:1067F0000168404606F0CCFF0646394606F0C8FC64
:106800006D4908606A4800686C4908606C48016816
:106810006C4806F08FFE02906B480168484606F00F
:1068200089FE019069480168484606F083FE0090A1
:1068300067480168009806F0ABFF8046019907F0B1
:1068400039F80746029906F0A3FC0646514606F0C1
:106850009FFC604908605A480168484606F06AFE95
:10686000064659480168304606F092FF5A490860CA
:1068700053480168484606F05DFE064653480168E5
:10688000304606F085FF5549086051464C4800687F
:1068900006F07EFC5249086059464E48006806F0F2
:1068A00077FC064631464B48006806F0E5FC4D494A
:1068B000086059464748006806F06AFC06463146BB
:1068C0004648006806F0D8FC474908603A48016825
:1068D000204606F0EFFF074642480168384606F0BA
:1068E00029FE064634480168304606F051FC31491D
:1068F000086031480168204606F0DCFF07463A4848
:106900000168384606F016FE06462C4801683046F7
:1069100006F03EFC26490860324801684FF07E5080
:1069200006F0C8FF06462B480168304606F002FE16
:10693000274908602B4801684FF07E5006F0BAFFE7
:10694000064625480168304606F0F4FD1E490860F9
:1069500025480168254806F0EDFD07461D480168F9
:10696000384606F0E7FD06461C480168304606F04A
:106970000FFC164908601C4801681C4806F0DAFD47
:10698000074615480168384606F0D4FD0646144807
:106990000168304606F0FCFB0949086005480068BC
:1069A000BDE8FE8F0AD7A33C0AD7233C0000204154
:1069B000DC000020D8000020D0000020D4000020FF
:1069C000FC00002017B7D139F4000020F8000020A7
:1069D000F0000020E0000020E4000020E80000209B
:1069E000EC0000200001002004010020000080BF16
:1069F00010B50948007838B901200749087002210C
:106A00000648FEF73AFD06E000200349087002211F
:106A10000248FEF734FD10BD0C01002000180140B3
:106A200008B50121402002F0FFFD0220ADF8000072
:106A300010208DF8030002208DF8020069460448FA
:106A4000FEF73EFC02210248FEF719FD08BD0000DA
:106A50000018014010B502210148FEF710FD10BDDD
:106A60000018014010B502210148FEF706FD10BDD7
:106A700000180140F8B569460F2003F0F1FE0EE062
:106A800069460F2003F0ECFE9DF80000692800D154
:106A900006E0002401E0601CC4B2322CFBDBEFE70F
:106AA00000BF0021112004F00FFE7021102004F01F
:106AB0000BFE0121122004F007FE11E000200090DF
:106AC0006946122003F0CCFE9DF8000000F00100A2
:106AD00000B906E0002401E0601CC4B2322CFBDBEC
:106AE000ECE700BF0021012004F0EEFD20210B2087
:106AF00004F0EAFD00210D2004F0E6FD00210E2047
:106B000004F0E2FD4321102004F0DEFD42211120BB
:106B100004F0DAFD7421122004F0D6FD8C2113203C
:106B200004F0D2FD0021142004F0CEFD0021152038
:106B300004F0CAFD0021162004F0C6FDC421172070
:106B400004F0C2FD1021582004F0BEFD38211820A9
:106B500004F0BAFD3821192004F0B6FD002400200D
:106B60003C49086037E00020009069461E2003F091
:106B700077FE9DF8000000F0020002281DD10025DC
:106B80006946232003F06CFE9DF80000054369462A
:106B9000222003F065FE280205B29DF8000005439F
:106BA000284606F067FC06462A480168304606F08B
:106BB000EFFA28490860601CC4B2052C0BDD2046A2
:106BC00006F070FC064631462248006806F054FB89
:106BD0002049086000E0C6E700BF002437E000203D
:106BE000009069461E2003F03BFE9DF8000000F077
:106BF000020002281DD100256946232003F030FE43
:106C00009DF8000005436946222003F029FE280272
:106C100005B29DF800000543284606F02BFC064609
:106C20000C480168304606F0B3FA0A490860601C57
:106C3000C4B21E2C0BDD204606F034FC064631465D
:106C40000448006806F018FB0249086000E0C6E747
:106C500000BFF8BDCC00002008B5002400BFFFF73E
:106C6000DFFE24E0601CC4B21148C06C28B9062CB9
:106C700016DD0024FFF7BCFE12E00D48C06C0128B1
:106C800002D1FFF7EFFE0BE00948C06C022805D1E6
:106C9000022C05DB0024FFF7ABFE01E0FFF7DAFE74
:106CA000FFF720FD6A4600210A2001F093F9D9E799
:106CB0009409002010B54FF400410248FEF7DFFBB5
:106CC00010BD00000008014010B54FF4004102481B
:106CD000FEF7D3FB10BD0000000801400E4890F8FD
:106CE000480000F0F000402805D10B4890F848001B
:106CF00000F00F0018B109480949086070470020EA
:106D0000054981F8AC01074903480165012180F874
:106D1000AD1100BFF2E700009409002019670008D8
:106D2000940000200000B44210B51E4890F84800BE
:106D300000F0F000102803D01B481C49086010BD6B
:106D40000020184981F8AC01084690F8480018283E
:106D50000CD10121134880F8AD110146486B4FF06A
:106D6000804106F015FA0F49086518E00D4890F8C3
:106D7000480014280CD101210A4880F8AD110146C1
:106D8000886B4FF0804106F095FD0649086506E0E6
:106D90000021044880F8AD11D0F8F011016500BF62
:106DA000CDE7000094090020196700089400002036
:106DB0002DE9F04F89B082460C464FF0000BD946C2
:106DC0000021504606F082FC2FD8504606F0B4F958
:106DD000074605F087FA054605F094FE81465046C1
:106DE00006F0AAF9CDE9000105F07CFA05460E4649
:106DF000504606F0A1F907462A46334606F0B2F897
:106E0000CDE9040199FBF4F004FB1095284605F048
:106E1000A8FECDE90201DDE9042305F02BFCCDE954
:106E2000060105F0F5FB834656E02AF0004B584674
:106E300006F082F9074605F055FA054605F062FEB0
:106E4000814699FBF4F004FB1099584606F074F95A
:106E5000CDE9000105F046FACDE90201584606F0F9
:106E60006BF90746DDE9022306F07CF805460E467D
:106E7000484605F076FE2A463346CDE9040105F082
:106E8000F9FB00221346CDE9060105F0FFFD02D112
:106E90004FF0000B20E0204606F0ECFA06463146A3
:106EA000584606F0E9F9054606F0A8FA00F101098E
:106EB000504606F041F921F00048074609FB04F06E
:106EC00005F04FFE3A464346CDE9060106F04AF882
:106ED000054605F09DFB8346584609B0BDE8F08F96
:106EE00008B5002000F06EF802F0F0FA5CE02F4ADE
:106EF0002F49002000F08CF800283AD12B48007868
:106F00002C49898A884202D028480078D0B90020CC
:106F100029490880294908802548028828492348AA
:106F200002F0C4F82549088008460088002836DDAC
:106F30001E48007898B3224A08460188002000F0D5
:106F4000BFF82CE01C4801880088401C1A4A1080B9
:106F500047F23050814222DBFFF7ACFE6A46002147
:106F6000642001F037F8FFF7AFFE002012490880D7
:106F700015E0114801880088401C0F4A108047F234
:106F8000305081420BDBFFF795FE6A4600216420FA
:106F900001F020F8FFF798FE0020074908806A46B4
:106FA0000021012001F016F8A1E70000984500201B
:106FB0008400002094090020860000208200002028
:106FC0006C44002010B5044614B1012C14D109E022
:106FD00004F074F80A480B4908600B480968C1F8C6
:106FE00060020AE004F06AF808480649486006486A
:106FF0004968C1F8600200E000BF00BF10BD00009A
:1070000034490020100100200D4B0008984B00204F
:107010002DE9F04104460E469046284850F82400D9
:107020000079AB2842D1254850F824004179234803
:1070300050F824004079401C204A52F82420507116
:10704000062938DB56201D4951F82410087100200C
:107050001A4951F824104871184850F82400008843
:1070600030800020154951F8241008803188134AD7
:1070700052F82420901DFCF72BF90746DFB90025B4
:107080000EE00E4850F82400801D405D08F8050011
:10709000FF210A4850F82400801D4155681C85B224
:1070A0003088A842EDDC0020BDE8F08100200349D3
:1070B00051F8241048714FF0FF30F5E7100100201F
:1070C0002DE9F04105460E469046002406E000BF3B
:1070D00000BF00BF00BF00BF601C84B24CF2503044
:1070E0008442F4DB002406E000BF00BF00BF00BF05
:1070F00000BF601C84B24CF250308442F4DB0024A8
:1071000009E018F80410154850F8250000F59970AA
:107110000155601C84B2B442F3DB104951F82510CC
:1071200001F599703146FCF7D3F807460B4850F843
:10713000250000F5997087553A0A084850F825004F
:1071400000F59970711C4254B21C90B2034A52F877
:107150002520D2F860128847BDE8F0811001002098
:1071600010B503F09DFF002411E00221204600F03D
:1071700013F90020C4EBC401064A02EB8101087632
:10718000C4EBC40102EB81018876601CC4B2012CFF
:10719000EBDB10BD1849002008B5002400BF00F04B
:1071A00075F9EFE0784890F8AD0100287ED0764878
:1071B00090F8F401C0F34010002877D1724890F89D
:1071C000F401C0F300100028F7D16F4890F8F401E3
:1071D00000F001000028F0D16B4890F8F401C0F3F2
:1071E00040000028E9D16848D0F8F401C0F34070AD
:1071F0000028E2D16448D0F8F401C0F38060002890
:10720000DBD1614890F8AC01012807D15E490869DB
:107210004FF0804106F030F8044600E000245B485F
:10722000007820B1012854D002287CD16CE0564A65
:10723000D2F8B411106D06F03DFB064652480169C4
:10724000304606F043FA12D202214F4880F8B011BE
:107250004F4801780078401C4D4A1070C82937DD2E
:1072600002204A49087000201146087030E0464864
:107270000169484806F05EF90646434AD2F8B4115F
:10728000106D06F017FB0746314606F01FF914D2C1
:1072900001213D4880F8B0113D4801780078401C3C
:1072A0003B4A1070C82913DD012000E050E0374947
:1072B00008700020114608700AE0FFF751FF002017
:1072C000324908703249087000212F4880F8B01107
:1072D0003DE02D4AD2F8B411106D06F0EBFA0646E7
:1072E000214606F0F3F905D9274890F8F401C0F3D8
:1072F000800028B1FFF734FF00202449087002E025
:10730000002000F0DBF822E01F4A116DD2F8B40132
:1073100006F0D0FA0646214606F0D8F907D91A48F1
:1073200090F8F40100E00CE0C0F3C00028B1FFF7D2
:1073300017FF00201549087002E0002000F0E4F873
:1073400005E0FFF70DFF00201049087000BF08E0BE
:10735000FFF706FF00200D49087000210A4880F859
:10736000B0110020FEF7B0FD074981F8AE01002002
:10737000FEF7A0FD044981F8AF016A460021012013
:1073800000F028FE0EE7000094090020880000208D
:1073900089000020000080BF70B504460D46012D15
:1073A0000DD1C4EBC4020D4B03EB82021189C4EB77
:1073B000C40203EB82025068FEF761F80CE0C4EBF4
:1073C000C402064B03EB82021189C4EBC40203EB37
:1073D00082025068FEF751F870BD00001849002085
:1073E00070B504460D46012D0DD1C4EBC4020E4B01
:1073F00003EB8202918AC4EBC40203EB82021069A0
:10740000FEF73DF80EE0022D0CD1C4EBC402064B92
:1074100003EB8202918AC4EBC40203EB820210697F
:10742000FEF72BF870BD00001849002008B50121B7
:10743000202002F0F9F84FF44040ADF80000102091
:107440008DF8030003208DF8020069460D48FDF712
:1074500037FF4FF400410B48FEF70FF809480A497F
:1074600048604FF40040088120200860054808610A
