:020000040800F2
:1000000068060020D5010008DD010008DF010008B6
:10001000E1010008E3010008E5010008000000001C
:10002000000000000000000000000000E7010008E0
:10003000E901000800000000EB010008ED010008E4
:10004000EF010008EF010008EF010008EF010008D0
:10005000EF010008EF010008EF010008EF010008C0
:10006000EF010008EF010008EF010008EF010008B0
:10007000EF010008EF010008EF010008EF010008A0
:10008000EF010008EF010008EF010008EF01000890
:10009000EF010008EF010008EF010008EF01000880
:1000A000EF010008EF010008EF010008EF01000870
:1000B000EF010008EF010008EF010008EF01000860
:1000C000EF010008EF010008EF010008EF01000850
:1000D000EF010008EF010008EF010008EF01000840
:1000E000EF010008EF010008EF010008EF01000830
:1000F000EF010008EF010008EF010008EF01000820
:10010000EF010008EF010008EF010008EF0100080F
:10011000EF010008EF010008EF010008EF010008FF
:10012000EF010008EF010008EF010008EF010008EF
:1001300000F002F800F03AF80AA090E8000C8244BF
:100140008344AAF10107DA4501D100F02FF8AFF29C
:10015000090EBAE80F0013F0010F18BFFB1A43F0A5
:1001600001031847D0040000F0040000103A24BF37
:1001700078C878C1FAD8520724BF30C830C144BF0C
:1001800004680C607047000000230024002500264E
:10019000103A28BF78C1FBD8520728BF30C148BFEA
:1001A0000B6070471FB51FBD10B510BD00F035F8CE
:1001B0001146FFF7F7FF00F021FA00F053F803B4FF
:1001C000FFF7F2FF03BC00F05BF8000080F3088843
:1001D000704700000948804709480047FEE7FEE7EE
:1001E000FEE7FEE7FEE7FEE7FEE7FEE7FEE7FEE7E7
:1001F00004480549054A064B70470000E904000819
:100200003101000868000020680600206802002014
:1002100068020020704770477047754600F02CF860
:10022000AE4605006946534620F00700854618B0E3
:1002300020B5FFF7DDFFBDE820404FF000064FF08E
:1002400000074FF000084FF0000B21F00701AC460B
:10025000ACE8C009ACE8C009ACE8C009ACE8C0092A
:100260008D46704710B50446AFF300802046BDE8C8
:100270001040FFF7A4BF00000048704704000020B2
:1002800001491820ABBEFEE72600020070470000BF
:100290000149C860704700000020024030B50446A4
:1002A00004254FF4302000F089F80546042D17D1BD
:1002B0000C48006940F002000A49086108464461A0
:1002C000006940F0400008614FF4302000F076F8FB
:1002D00005460448006941F6FD710840014908617E
:1002E000284630BD0020024004200B49C96801F0B7
:1002F000010109B101200EE00749C96801F00401BC
:1003000009B1022007E00449C96801F0100109B1F0
:10031000032000E0042070470020024004200B4925
:10032000C96801F0010109B101200EE00749C9685F
:1003300001F0040109B1022007E00449C96801F095
:10034000100109B1032000E00420704700200240A2
:100350000348006940F080000149086170470000CF
:100360000020024070B504460D460426F00200F05D
:1003700025F80646042E11D10948006940F0010015
:10038000074908612580F00200F018F80646044885
:10039000006941F6FE71084001490861304670BDB0
:1003A0000020024002480349486003484860704703
:1003B0002301674500200240AB89EFCD00B502461E
:1003C0000423FFF791FF034603E0FFF78DFF034689
:1003D000521E012B01D1002AF7D102B9052318467C
:1003E00000BD10B502460B460020002100BF04E00E
:1003F00032F811400444A0B2491C9942F8D310BD10
:1004000010B500F001F810BD0CB50020019000906F
:100410003348006840F480303149086000BF3048FC
:10042000006800F4003000900198401C0190009892
:1004300018B90198B0F5A06FF1D12948006800F40F
:10044000003010B10120009001E0002000900098E1
:10045000012843D12348006840F01000214908607A
:100460000846006820F0030008600846006840F075
:10047000020008601A484068194948600846406808
:1004800048600846406840F480604860084640681C
:1004900020F47C1048600846406840F4E81048604A
:1004A0000846006840F08070086000BF0C48006893
:1004B00000F000700028F9D00948406820F00300DF
:1004C000074948600846406840F00200486000BFA5
:1004D0000348406800F00C000828F9D10CBD00006A
:1004E000001002400020024010B51348006840F0A0
:1004F00001001149086008464068104908400E494B
:100500004860084600680E4908400B4908600846E4
:10051000006820F4802008600846406820F4FE004F
:1005200048604FF41F008860FFF76AFF4FF00060DB
:100530000449086010BD0000001002400000FFF8F0
:10054000FFFFF6FE08ED00E070B548E04FF4A03183
:100550002748FFF746FF4FF6FF7188422FD1FFF77C
:1005600021FF3520FFF794FE00240AE0214901EB2A
:10057000C420FFF793FE00BFFFF7D0FE0128FBD099
:10058000641C502CF2D31C480668002413E0184960
:1005900031F8145000BFFFF7C1FE0128FBD0154908
:1005A00001EB44002946FFF7DDFE00BFFFF7B6FE72
:1005B0000128FBD0641CB442E9D3FFF7C9FEFFF762
:1005C000F1FE3520FFF764FE0B48801EFFF766FE44
:1005D00000BFFFF7A3FE0128FBD0FFF7B9FE0648D6
:1005E000801E00884AF6AA218842AFD070BD000064
:1005F00000A002080020000802F00708FFF7A4FF8F
:1006000011E00948006809490840B0F1005F0AD1CB
:10061000054840680649086003490868FFF7D6FDA9
:10062000034800688047ECE7002000080000FE2F28
:100630000000002054060008000000200400000014
:100640006C01000858060008040000206406000041
:08065000880100080000000011
:0400000508000131BD
:00000001FF
:10200000F054002021220008292200082B22000879
:102010002D2200082F2200083122000800000000B5
:102020000000000000000000000000003322000853
:1020300035220008000000002F230008A5800008BA
:102040003B2200083B2200083B2200083B220008FC
:102050003B2200083B2200083B2200083B220008EC
:102060003B2200083B2200083B220008954900085B
:102070003B2200083B2200083B2200083B220008CC
:102080003B2200083B2200083B2200083B220008BC
:102090003B2200083B2200083B2200083B220008AC
:1020A0003B2200083B2200083B2200083B2200089C
:1020B0003B22000835AE00083B2200083B22000806
:1020C0003B2200083B2200083B2200083B2200087C
:1020D0003B2200083B2200083B2200083B2200086C
:1020E0003B2200083B2200083B2200083B2200085C
:1020F0003B2200083B2200083B2200083B2200084C
:102100003B2200083B2200083B2200083B2200083B
:10211000EDB100083B2200083B2200083B220008EA
:102120003B2200083B2200083B2200083B2200081B
:1021300000F002F800F04AF80AA090E8000C82448F
:102140008344AAF10107DA4501D100F03FF8AFF26C
:10215000090EBAE80F0013F0010F18BFFB1A43F085
:102160000103184794B90000B4B900000A4410F8FC
:10217000014B14F00F0508BF10F8015B240908BFDC
:1021800010F8014B6D1E05D010F8013B6D1E01F8D3
:10219000013BF9D1641E03D0641E01F8015BFBD141
:1021A0009142E4D37047000000230024002500265C
:1021B000103A28BF78C1FBD8520728BF30C148BFAA
:1021C0000B6070471FB51FBD10B510BD00F05EF865
:1021D0001146FFF7F7FF09F0B9FE00F07CF803B4F1
:1021E000FFF7F2FF03BC00F07FF8000072B6704703
:1021F00062B67047EFF3108072B6704780F31088B4
:10220000704730BF704720BF7047B0FA80F070470A
:1022100090FAA0F0B0FA80F0704790FAA0F0704702
:102220000948804709480047FEE7FEE7FEE7FEE76A
:10223000FEE7FEE7FEE7FEE7FEE7FEE704480549A6
:10224000054A064B7047000065AD000831210008C3
:10225000F04E0020F0540020F0500020F0500020FC
:1022600070477047704710B500F008F8006810BD5F
:1022700010B5044600F002F8046010BD0048704735
:10228000904E002000487047904E00207546FFF7A2
:10229000F9FFAE4605006946534620F00700854623
:1022A00018B020B5FFF7CAFFBDE820404FF0000688
:1022B0004FF000074FF000084FF0000B21F007012E
:1022C000AC46ACE8C009ACE8C009ACE8C009ACE871
:1022D000C0098D46704710B50446AFF30080204614
:1022E000BDE81040FFF77BBF01491820ABBEFEE7F9
:1022F00026000200704700001D484FF0FF010170EA
:10230000002080F309881B48016881F308881A4877
:102310004FF08051016062B6FEE717484FF08051E0
:102320000160704714484FF080510160704772B6E9
:10233000EFF3098028B1203880E8F00F0F490968D1
:10234000086000B50E4880475DF804EB0D480E4963
:102350000A78027009480D490A680260106890E81E
:10236000F00F203080F309884EF0F40E62B670470B
:1023700022ED00E06000002004ED00E058000020A5
:10238000257F00082D0000202E0000205C0000208A
:1023900010B502210F4800F0F5F800210E4802F0B8
:1023A00099FB32200C490839C86001210A4802F023
:1023B00091FB0121074800F0F3F806480830006857
:1023C00040F002000349083108600121014800F093
:1023D00086F910BD002401400800024000B591B00C
:1023E0000121480207F010F90121082007F00CF93B
:1023F0000121102007F008F94FF4004007F0D8F849
:102400000120ADF8400000208DF8430010A9584885
:1024100002F01CFF0220ADF8400000208DF84300C0
:1024200010A9534802F012FF0120ADF8400000202F
:102430008DF8430010A94F4802F008FF0820ADF8BE
:10244000400000208DF8430010A94A4802F0FEFE2B
:102450000420ADF8400000208DF8430010A9454845
:1024600002F0F4FE0121084607F0AEF84248009061
:1024700042480190002002903220039000200490F6
:102480008020059040000690800007900020089072
:102490004FF40050099000200A906946384802F035
:1024A00044FB0121364802F015FB01220221344889
:1024B00002F032FB00200B9001208DF830008DF8E7
:1024C00031004FF460200D9000200E9005208DF813
:1024D0003C000BA928484C3800F078F8072301226B
:1024E000082125484C3800F099F8072302220921D9
:1024F00021484C3800F092F8072303220A211E4895
:102500004C3800F08BF8072304220C211A484C3871
:1025100000F084F8072305220D2117484C3800F0FD
:102520007DF8012114484C3800F03AF80121124896
:102530004C3800F02AF810484C3800F0CBF800BFB7
:102540000D484C3800F037F80028F9D10A484C38CB
:1025500000F0D0F800BF08484C3800F02CF80028F4
:10256000F9D1012104484C3800F0B9F811B000BD90
:10257000000C0140001001404C240140004E00209E
:1025800008000240CA430260704721B1826842F0ED
:102590000102826003E0826822F0010282607047DB
:1025A00021B1826842F48072826003E0826822F482
:1025B000807282607047014600208A6802F004023F
:1025C0000AB1012000E000207047000030B502464B
:1025D0000020002350680F4C20400D790C6844EA1D
:1025E00005242043506090680B4C2040D1E90254F0
:1025F0002C434D7944EA450420439060D06A20F48E
:1026000070000C7C641EE4B2234340EA0350D062A5
:1026100030BD0000FFFEF0FFFDF7F1FFF0B504460E
:102620000D4600200021092D11DDE068A5F10A0604
:1026300006EB4607072606FA07F18843A5F10A06C6
:1026400006EB460603FA06F10843E0600CE0206959
:1026500005EB4507072606FA07F1884305EB450613
:1026600003FA06F108432061072A0FDA606B561E51
:1026700006EB86071F2606FA07F18843561E06EB6F
:10268000860605FA06F10843606322E00D2A0FDA98
:10269000206BD61F06EB86071F2606FA07F1884334
:1026A000D61F06EB860605FA06F10843206310E004
:1026B000E06AA2F10D0606EB86071F2606FA07F16F
:1026C0008843A2F10D0606EB860605FA06F10843DB
:1026D000E062F0BD816841F008018160704721B17E
:1026E000826842F4A002826003E0826822F4A002C1
:1026F00082607047816841F004018160704700008A
:1027000051485249086052484860524888605248CF
:10271000C86052480861524848615248886152482E
:10272000C86152480862524848625248886252481A
:10273000C862524808635248486352488863524806
:10274000C8655248086652484866524888665248EA
:10275000C866524808675248C1F884005148C1F819
:1027600088005148C1F898005048C1F89C00504872
:10277000C1F8A0004F48C1F8AC004F48C1F8B00004
:102780004E48C1F8B4004E48C1F8B8004D48C1F8F1
:10279000BC004D48C1F8C0004C48C1F8C4004C48CA
:1027A000C1F8C8004B48C1F8CC004B48C1F8D00074
:1027B0004A48C1F8DC004A48C1F8E0004948C1F87D
:1027C000E4004948C1F8E8004848C1F8EC0048482E
:1027D000C1F844014748C1F848014748C1F85001D1
:1027E0004648C1F864014648C1F868014548C1F847
:1027F0006C014548C1F870014448C1F8740144486F
:10280000C1F878014348C1F88C014348C1F89001F0
:102810004248C1F894014248C1F898014148C1F8C2
:102820009C014148C1F8A0014048C1F8A4014048BA
:10283000C1F8A8013F48C1F8BC013F48C1F8C00138
:102840003E48C1F8C401704745970008C8460020BB
:1028500029A6000849A60008ADA70008CDA70008D2
:1028600069970008F59A0008899700089997000869
:10287000D1940008E1940008B9990008C9990008AA
:10288000519800086198000801A4000829A30008D5
:1028900009A2000869A20008C9A2000889A30008CB
:1028A0004DA10008619A0008F99700084D9A0008A8
:1028B000A9970008D1A00008EDA00008F19D00082C
:1028C0000D9E0008059D0008219D000861A40008D8
:1028D0007DA40008359C0008519C0008D197000891
:1028E000719500082195000889950008F194000869
:1028F000659B0008A1A00008299B00085D9F0008B7
:10290000799F0008F19F00080DA000088DA1000824
:10291000A9A1000825A50008F1A40008119F00083E
:10292000DD9E00089D9B0008B99B000855A5000886
:1029300071A50008919A0008CD9C0008EDA500083B
:1029400070B50024304890F8480000F0F00080286E
:1029500005D12D4890F8480000F00F0030B100205C
:102960002A4908802A482B49086070BD0020264962
:1029700081F8AC010021244880F8AD11234800887B
:10298000401C2249088008460088B0F5967F00DA8E
:10299000EBE700201D4908801B4890F8F401C0F3C4
:1029A000401058BB184890F8F401C0F3001028BB41
:1029B0001548D0F8B41118480AF05EFF05461248D1
:1029C000016828460AF0C6FB0446144920460AF06E
:1029D0005FFD07D2124920460AF05AFE02D20A4889
:1029E000046002E00020084908600748D0F8F801B8
:1029F00020F00100401C0449C1F8F8010021024800
:102A0000816400BFB1E7000098090020A400002005
:102A1000A5660008940000200000B4420000204198
:102A2000000020C11CB5002400BF00F027F821E001
:102A30006946002002F0F0FC48B90F480168009890
:102A40000AF088FB0C49C1F8B40100240DE0142CF5
:102A500002DA601C84B208E00748D0F8F40120F0E4
:102A6000100010300449C1F8F40101AA002102202D
:102A700005F0A0FADCE700009809002008B507F08F
:102A800027FF03F0B1FF6946182007F0CBFE9DF841
:102A90000000382801D1002008BD4FF0FF30FBE7CF
:102AA00008B500BF0BE000F0B5FC02F00BFD0449D7
:102AB000C1F8F0016A4600211E2005F07BFAF2E71A
:102AC0009809002010B5204890F84800282803D025
:102AD0001E481F49086010BD00201B4981F8AC0149
:102AE000486B4FF07E510AF035FB04461648416DA5
:102AF00020460AF0CDFD08D21349486B4FF07E51B5
:102B00000AF028FB1049086518E00F49886B4FF060
:102B10007E510AF0B1FE04460B48416D20460AF092
:102B2000B7FC08D20849886B4FF07E510AF0A4FE2A
:102B30000549086502E00448416D0165012102482C
:102B400080F8AD1100BFC6E798090020F92B0008F6
:102B50009800002010B50C4890F84800252803D0B4
:102B60000A480B49086010BD0020074981F8AC01F4
:102B7000888F0AF079FC044908650121024880F831
:102B8000AD1100BFEFE7000098090020F92B000805
:102B90009800002010B5144890F8480000F0F000AC
:102BA000202818D11048D0F8F401C0F3807068B91B
:102BB0000D48D0F8F401C0F3006038B908F05AFCB1
:102BC00000F082FA0948006880470BE000210648BF
:102BD00080F8AD1106E00648064908600021024869
:102BE00080F8AD1110BD0000980900209800002069
:102BF000A56600089400002000211F4880F8AD1150
:102C000090F84800242803D11C481D49086032E090
:102C1000194890F84800252803D11A481849086037
:102C200029E0154890F84800282806D1164814498C
:102C300008600021104881651DE00F4890F84800A9
:102C4000212803D111480E49086014E00A4890F881
:102C50004800222803D10E48094908600BE00648C5
:102C600090F84800202803D10A480549086002E08E
:102C700009480A490860704798090020C52F0008D4
:102C800098000020552B0008C52A0008A12C000838
:102C9000B92E00082D2F0008A5660008940000201A
:102CA00010B57C4890F84800212808D000207A49C7
:102CB00008707A4908807A487A49086010BD002077
:102CC000744981F8AC017448007805287ED2DFE8A9
:102CD00000F0032D6581B80073496E48016501213C
:102CE00080F8AD11014608696F490AF033FA0446CD
:102CF0006848D0F8B41120460AF0CAFC15D86548D7
:102D0000016969480AF0B8FD04466248D0F8B41178
:102D100020460AF0BDFB08D80120644908705E49CE
:102D2000087000215B4880F8AD11B0E001215948DE
:102D300080F8AD115D49097801EB8101490001F18D
:102D40003C000AF079FB53490865086D58490AF0C0
:102D50009FFC0AD801205549087003204E4908708D
:102D600000214C4880F8AD1117E04A49086D4FF03A
:102D70007E510AF081FD04464648D0F8B411204641
:102D80000AF086FB09D2022043490870002043491B
:102D9000088000213F4880F8AD1178E000213D48CF
:102DA00080F8AD113D4801880088401C3B4A1080E6
:102DB00042F6E06081420CDB0020114608800120D1
:102DC0003549087039480078401C00E053E0374925
:102DD00008705CE001212F4880F8AD113349097873
:102DE00001EB81014900C1F178000AF025FB294976
:102DF0000865086D2F490AF04BFB09D801202B49C3
:102E00000870254908700021224880F8AD1117E0AC
:102E10002049086D4FF07E510AF09CF904461D4888
:102E2000D0F8B41120460AF033FC09D804201A491E
:102E300008700020194908800021164880F8AD115B
:102E400025E00021134880F8AD111448018800885E
:102E5000401C124A108042F6E06081420ADB0020EA
:102E60001146088003200C49087010480078401C67
:102E70000E4908700BE000200749087007490880D8
:102E80000A4908700021034880F8AD1100BF00BF57
:102E900000BF13E798090020A6000020A80000202A
:102EA000F92B00089800002000007042AA000020C2
:102EB0000000F4420000684210B5174890F848003E
:102EC000222803D015481649086010BD0020124979
:102ED00081F8AC01D1F8B40112490AF0CDFC0446E6
:102EE00011490AF0D5FB08D20B49886B4FF080419D
:102EF0000AF0C2FC0849086507E00749486B4FF033
:102F000080410AF027F9044908650121024880F848
:102F1000AD1100BFD9E7000098090020F92B000887
:102F2000980000200000B442CDCCCC3D10B5224822
:102F300090F84800202803D020482149086010BD9F
:102F400001201D4981F8AC01886B4FF07E510AF0D9
:102F500093FC04461848D0F8F01120460AF098FA7D
:102F600008D81549886B4FF07E510AF085FC12494C
:102F700008651AE01049486B4FF07E510AF0EAF8F4
:102F800004460D48D0F8F01120460AF081FB08D81D
:102F90000949486B4FF07E510AF0DCF80649086594
:102FA00003E00548D0F8F01101650121024880F8DE
:102FB000AD1100BFC3E7000098090020F92B0008FD
:102FC0009800002010B50C4890F84800242803D041
:102FD0000A480B49086010BD0020074981F8AC0180
:102FE000888F0AF041FA044908650121024880F8F7
:102FF000AD1100BFEFE7000098090020F92B000891
:103000009800002010B501214FF0C05006F0ECFAF6
:10301000012005F04DFE002000F042F8002000F0F5
:103020002BF800F01FF8002005F042FE10BD10B58F
:10303000042000F027F84AF6AA21884201D1002096
:1030400010BD4FF0FF30FBE710B5012005F030FE5A
:103050004AF6AA21042000F029F8002005F028FEF5
:1030600010BD00000348008840F0010001490880BD
:1030700070470000346C0040014908607047000050
:1030800088860D4208B50146002000900348009054
:103090000098084400900098008808BD006C00402B
:1030A000014908607047000000860D4208B5002203
:1030B0000092044A0092009A02440092009A116021
:1030C00008BD0000006C00400E4890F8480024281D
:1030D00017D00C4890F84800252809D10948D0F8A5
:1030E000F401C0F3007060B920210648816408E053
:1030F0000448D0F8F401C0F3007010B12521014854
:10310000816470479809002070B5044600250C4979
:1031100020460AF0F1F906460A490AF0ADFB0546D9
:103120004FF07E5128460AF0B3FA01D84FF07E5591
:10313000054928460AF0ACF900D8034D284670BD71
:10314000F7E4213E666666400AD7233C70B500244A
:10315000002503F077F8184818490861001588829F
:103160000820C86014484860C0140881082008601E
:10317000084603F0DEF800F02DF802F091FD054658
:103180004DB90F480F4908600F4848600F488860E4
:103190000F48C86009E00A480A4908600A484860C0
:1031A0000A4888600A48C86000BF00BF01F026FBDB
:1031B0000446204670BD0000000C01400449002078
:1031C00033335340F4480020333383401283C03EEE
:1031D0000931000808B50121202006F015FA402029
:1031E000ADF8000004208DF8030002208DF80200E5
:1031F0006946054802F02AF88020ADF800006946CB
:10320000014802F023F808BD0014014001460846B9
:10321000044A1268904203D9024A1268801A00E0F8
:10322000002070477400002070B5002500BFFEF735
:10323000E1FF054600BF0648046800BF2846FEF7C8
:10324000DDFF00BF2046FFF7E1FF0646304670BDB8
:103250007800002070B50025FFF7E6FF044600BFA8
:10326000FEF7C8FF054600BF00200449086000BF04
:103270002846FEF7C3FF00BF204670BD780000203F
:1032800000B509480088401C0749088007480088A5
:1032900018B900F039F80649086004480088401C55
:1032A0000249088000BD0000680000206A0000207C
:1032B0006C00002000B50F480088401E0D4A1080A9
:1032C00010460088A0B900F01FF80B4A10601046A5
:1032D00000680A4A1268811A09480068884201D2C7
:1032E0000748016007480068884201D2054801602C
:1032F00000BD00006A000020700000206C0000206B
:10330000780000207C0000200148406870470000E1
:10331000001000E030B502460B46002100244FF6B5
:10332000FF7000BF12E0555C684000240AE000F026
:10333000010525B140104AF20105684000E0401047
:10334000651CECB2082CF2DB4D1CA9B29942EADBF9
:1033500030BD00002DE9F74F82B08946144648463B
:1033600009F0CCFE0746224A224B09F043FC0546F1
:1033700009F030F98146204920460AF0BDF882461E
:1033800009F0BCFE07461A4A1A4B09F033FC054601
:1033900009F020F904461948016802980AF06CFA0D
:1033A000824609F0ABFE0746154A164B09F022FC8F
:1033B000054609F00FF902902146484608F0DAFB6D
:1033C000009009F09BFE05460F4A104B09F012FCD5
:1033D000074600220E4B09F02FF9824609F0FAF851
:1033E0000190DDE9011003F0A7F905B0BDE8F08F09
:1033F000D5CC5A0A48FB0F3F000080BFD000002008
:10340000EC51B81E85EB713FD3DEE00B93A94C4025
:103410000080564000B5C3B0002042900021419189
:1034200040913F913E913D913C913B913A91399130
:103430003891379136913591349133913291319160
:1034400030912F912E912D912C912B912A91299190
:1034500028912791269125912491239122912191C0
:1034600020911F911E911D911C911B911A91FE4854
:10347000B0F860103E91B0F862103D91B0F8641061
:103480003C91DDE93C213E9802F044FC409040F242
:103490006C71419129E04FF4C871419890FBF1F2B1
:1034A00001FB120010B94FF4B77118E04198C21730
:1034B000199000EB927082101998A0EB820060B90D
:1034C0006421419890FBF1F201FB120010B14FF41E
:1034D000B77104E040F26D1101E040F26D113F98C8
:1034E00001443F914198401C41903E994198884247
:1034F000D1DBDDE93F1001443F91DB484168389161
:1035000081683791C1683691B0F866103B91B0F888
:1035100068103A91B0F86A103991399809F08CFF27
:1035200035903A9809F0FFFACDE91601359809F07F
:10353000E5FD0022CD4BCDE9120109F031F9CDE9CD
:103540001401DDE9162309F077F8CDE9180109F037
:1035500041F835903B9809F0E6FACDE91401359829
:1035600009F0CCFD0022C14BCDE9100109F018F99A
:10357000CDE91201DDE9142309F05EF80022BC4B0D
:10358000CDE9160109F00CF9CDE9180109F022F88E
:1035900035903F98401C09F04FFF3490B54936985C
:1035A00009F04CFE0F9009F0A9FDCDE91201359804
:1035B00009F0A4FD4FF08042AF4BCDE90E0109F0B8
:1035C0003BF8CDE91001DDE9122309F0ADFCCDE9AE
:1035D0001601349809F092FDCDE91401DDE91623B6
:1035E00009F02AF8CDE9180108F0F4FF3490A34956
:1035F00034980AF041F9A249199009F01FFE33905E
:10360000339809F07BFD9F4A9F4BCDE90E0109F0ED
:10361000F1FA9E4A9E4BCDE9100109F00DF8CDE973
:103620001401339809F06AFDCDE91201DDE9142394
:1036300009F0E0FA974A984BCDE9160108F0FCFF33
:10364000CDE9180108F0C6FF32904FF4B4713298FA
:1036500003F09EFB3290339809F050FD8F4A904B57
:10366000CDE90E0109F0C6FA8E4A894B373BCDE908
:10367000100109F04DFCCDE91401339809F03EFD2D
:10368000CDE91201DDE9142309F0B4FA864A874B2B
:10369000CDE9160108F0D0FFCDE9180108F09AFF36
:1036A0003190339809F02AFD814A824BCDE90E0111
:1036B00009F0A0FA804A814BCDE9100108F0BCFF67
:1036C000CDE91401339809F019FDCDE91201DDE9C6
:1036D000142309F08FFA7A4A7A4BCDE9160109F0E2
:1036E00017FCCDE9180108F075FF30907648319944
:1036F00009F002FF75490A9009F0A0FD0B9009F04E
:10370000FDFC734A734BCDE90C0109F073FACDE966
:103710000E0108F05FFF109008F0C8FD119009F04D
:10372000EDFC6D4A6D4BCDE9120109F063FACDE96C
:103730001601339809F0E2FC694A6A4BCDE90801A9
:1037400009F058FA684A694BCDE90A0109F0E0FB33
:10375000CDE90E014FF08040319909F0CDFE5B4973
:10376000049009F06BFD059009F0C8FC584A594BCC
:10377000CDE9060109F03EFACDE9080108F02AFF7B
:103780000A9008F093FD0B9009F0B8FCCDE90C010C
:10379000DDE90E2309F02EFACDE91201339809F084
:1037A000ADFC534A534BCDE9020109F023FA524ACA
:1037B000524BCDE9040108F03FFFCDE908013398F1
:1037C00009F09CFCCDE90601DDE9082309F012FAB5
:1037D0004B4A4C4BCDE90A0109F09AFBCDE90E01A9
:1037E0003A49319809F02AFD059009F087FC384ADA
:1037F000384BCDE9060109F0FDF9CDE9080108F0E3
:10380000E9FE0A9008F052FD0B9009F077FCCDE933
:103810000C01DDE90E2309F0EDF9CDE91001DDE938
:10382000122308F009FFCDE91401DDE9162308F0A1
:1038300003FFCDE9180108F0CDFE2F902F993298A3
:1038400009F088FC2E90339809F058FC2E4A2F4B33
:10385000CDE9140109F0CEF92D4A2E4BCDE9160120
:1038600009F056FB58E000009809002000004E4087
:10387000000038400000C041D56C424164A1154AA7
:1038800000AD0E47C0AB8A15DADE333F2F8672A239
:103890001894E14046CEC29E768771400CDB60F200
:1038A0005025243F2AC6F99BC91F0C3C7758764007
:1038B00000D864FC6001813E03E35F521C0A063FAE
:1038C00080035D72111C913F0000404000003443B2
:1038D0004AD8124DFB2109402C616D8C9DF0323F7E
:1038E000E31A9FC9FE791A3F958098840B79943F1B
:1038F000B75F3E59315CED3EAEF36F97FDBA733F53
:10390000F6B2EDB435A2FE3F068195438B389E405A
:10391000C3F5285C8F425F40CDE9180108F05AFEDC
:103920004290FE49429809F089FC0B9009F0E6FBB1
:10393000FB4AFC4BCDE90C0109F05CF9CDE90E0125
:1039400008F048FE109008F0B1FC119009F0D6FB89
:10395000F54AF64BCDE9120109F04CF9CDE9160113
:103960002E9809F0CBFBF24AF24BCDE9120109F097
:10397000DBFACDE91401DDE9162309F0D5FACDE92A
:10398000180108F027FE2D90339809F0B7FBEA4A9A
:10399000EA4BCDE9000109F02DF9E94AE94BCDE9FF
:1039A000020109F0B5FACDE90601339809F0A6FB4A
:1039B000CDE90401DDE9062309F01CF9E24AE34BF5
:1039C000CDE9080108F038FECDE90C01339809F083
:1039D00095FBCDE90A01DDE90C2309F00BF9DC4A7E
:1039E000DC4BCDE90E0109F093FA0022DA4BCDE968
:1039F000100108F0D5FE0022D84BCDE9120108F0E5
:103A00001BFE0022D44BCDE9140108F0C9FE0022B0
:103A1000D34BCDE9160108F00FFECDE9180108F0EF
:103A2000D9FD2C90BD49429809F008FC0B9009F093
:103A300065FBBB4ABB4BCDE90C0109F0DBF8CDE9D6
:103A40000E0108F0C7FD109008F0C2F9119009F0BE
:103A500055FBC44AC44BCDE9120109F0CBF8CDE9BE
:103A600016012C9809F04AFBCDE91401DDE9162373
:103A700008F0E2FDCDE9180108F0ACFD2B90A74954
:103A80002D9809F0DBFB099009F038FBA44AA54BFF
:103A9000CDE90A0109F0AEF8CDE90C0108F09AFD74
:103AA0000F9008F003FC9D4911902B9809F0C6FB7C
:103AB000099009F023FB9A4A9A4BCDE90A0109F0D3
:103AC00099F8CDE90C0108F085FD0F9008F0EEFBA8
:103AD0001090119909F010FD129007F0B9FF1390A2
:103AE00009F00CFB8E4A8F4BCDE9140108F058FE0B
:103AF00000229E4BCDE9160109F07CF8CDE91801B2
:103B000008F068FD2A904FF080412B9809F096FB51
:103B10008249109009F092FB119009F0EFFA804A67
:103B2000804BCDE9120109F065F8CDE9140108F0E8
:103B300051FD179008F094FC4FF0804119902B989C
:103B400009F07CFB7549109009F078FB119009F0A1
:103B5000D5FA734A734BCDE9120109F04BF8CDE960
:103B6000140108F037FD179008F07AFC18901999A5
:103B700009F0C2FC29906949319809F05FFB079070
:103B800009F0BCFA664A674BCDE9080109F032F842
:103B900000224FF08043CDE90A0109F02BF8CDE96E
:103BA0000C0108F017FD0E9008F080FB0F9009F053
:103BB000A5FACDE91201309809F0A0FACDE90E017D
:103BC000309809F09BFA0022694BCDE90A0109F00F
:103BD00011F8CDE90C01DDE90E2309F00BF8CDE970
:103BE0001001DDE9122309F005F8CDE916014B4972
:103BF000329809F023FB039009F080FA484A494BB8
:103C0000CDE9040108F0F6FF00225A4BCDE9060188
:103C100008F0F0FFCDE9080108F0DCFC0A9008F09C
:103C200045FB0B9009F06AFACDE90E01299809F0DD
:103C300065FACDE90A01299809F060FA00224E4B95
:103C4000CDE9060108F0D6FFCDE90801DDE90A2338
:103C500008F0D0FFCDE90C01DDE90E2308F0CAFF22
:103C6000CDE912012D49329809F0E8FA039009F0E4
:103C700045FA2B4A2B4BCDE9040108F0BBFF00228B
:103C80004FF08043CDE9060108F0B4FFCDE908010B
:103C900008F0A0FC0A9008F09BF820490C9031989D
:103CA00009F0CCFA039009F029FA1D4A1D4BCDE921
:103CB000040108F09FFFCDE9060108F08BFC089095
:103CC00008F0F4FA0A904FF08140309909F014FCA2
:103CD0000890299909F010FC09900A9909F00CFC48
:103CE0000B900C9909F008FC0C490E90319809F0E2
:103CF000A5FA039009F002FA094A0A4BCDE904013A
:103D000008F078FFCDE9060108F064FC089008F09F
:103D1000CDFA0A904FF0804030992FE000003443F4
:103D20004AD8124DFB210940F94ECC7A3194733FA9
:103D30001FBAA0BE654E773FD61A4AED45B45D3F27
:103D4000BEA4315A4755433FB81E85EB51684740E2
:103D5000A69BC420B072354000004E4000003A409F
:103D600000003740F168E388B5F8643F00806640A2
:103D70000000F43F000010400000E03F09F0BCFBF1
:103D800009900A9909F0B8FBFE490C90329809F0A5
:103D900055FA019009F0B2F9FB4AFC4BCDE902015A
:103DA00008F028FF00224FF08043CDE9040108F01D
:103DB00021FFCDE9060108F00DFC099008F076FA24
:103DC0000A90299909F098FB0B900C9909F054FD81
:103DD0000D900E9909F0BEF90F9009F08FF9CDE919
:103DE0001001DDE9122309F09FF8CDE91401DDE9A6
:103DF000162309F099F8CDE9180108F0EBFB429081
:103E0000429809F07BF9E04AE04BCDE9120108F055
:103E1000C7FC0022DE4BCDE9140108F0EBFE0022C6
:103E2000DC4BCDE9160108F0E5FECDE9180108F0FC
:103E3000D1FB2890D3492A9809F000FA079009F09D
:103E40005DF9D14AD14BCDE9080108F0D3FECDE9A7
:103E50000A0108F0BFFB0D9008F002FBC9490F9062
:103E6000379809F0EBF9079009F048F9C64AC74BB3
:103E7000CDE9080108F0BEFECDE90A0108F0AAFB71
:103E80000D9008F0EDFA0E900F9909F035FBBD4941
:103E900011902A9809F0D2F9059009F02FF9BA4A41
:103EA000BA4BCDE9060108F0A5FECDE9080108F0FE
:103EB00091FB0B9007F08CFFB2490D90379809F0F9
:103EC000BDF9059009F01AF9AF4AB04BCDE90601EA
:103ED00008F090FECDE9080108F07CFB0B9007F09C
:103EE00077FF0C900D9909F007FB0F90AA4807F097
:103EF0006FFF0E900F9909F0A1F91090119909F038
:103F0000BBFC129007F016FD139009F0F7F89E4ADB
:103F10009E4BCDE9140108F043FC00229C4BCDE9F7
:103F2000160108F067FECDE9180108F053FB279051
:103F30009A49369809F0E0FA18904FF08140389984
:103F400009F0DAFA9649159009F004FC16902899C0
:103F500009F092FC1790189909F0FCF89149199012
:103F600009F06CF926904FF08141279809F0C4FAC6
:103F70008C49189009F062F91990269909F0EAFB2A
:103F800025904FF08141279809F0B6FA854918909D
:103F900009F054F91990269909F0DCF824907F482B
:103FA000369909F0A9FA19904FF08140389909F033
:103FB000A3FA7C491790359809F09EFA1590289934
:103FC00009F0C8F81690179909F0C4F818901999D3
:103FD00009F052FC23904FF4B461239802F0D8FE0C
:103FE00023900021239809F053FA09D24FF0814120
:103FF000239809F023F96349199009F03DFC08E082
:104000004FF08141239809F019F95E49199009F0A0
:1040100033FC22905B49229809F010F9079009F0CF
:104020006DF8594A594BCDE9080108F0E3FDCDE997
:104030000A0108F0CFFA0D9007F0CAFE51490F901F
:104040002A9809F0FBF8059009F058F84E4A4F4BB2
:10405000CDE9060108F0CEFDCDE9080108F0BAFA75
:104060000B9007F0B5FE47490D90379809F0E6F838
:10407000059009F043F8444A444BCDE9060108F0A5
:10408000B9FDCDE9080108F0A5FA0B9007F0A0FEF4
:104090000C900D9909F030FA0E900F9909F02CFA56
:1040A000384911902A9809F0C9F8079009F026F8C4
:1040B000354A364BCDE9080108F09CFDCDE90A01EF
:1040C00008F088FA0D9008F0F1F82E490F90379813
:1040D00009F0B4F8079009F011F82B4A2B4BCDE901
:1040E000080108F087FDCDE90A0108F073FA0D9088
:1040F00008F0DCF80E900F9909F0FEF91090119974
:1041000009F028F8129007F015FC139008F0F6FF5C
:104110001D4A1E4BCDE9140108F042FB00221C4B46
:10412000CDE9160108F066FDCDE9180108F052FA54
:1041300021901D48219909F09FFB2090114920985A
:1041400009F07CF8139008F0D9FF0F4A0F4BCDE926
:10415000140108F04FFDCDE9160108F03BFA199063
:1041600008F07EF91F901F99084609F0C5F91990CB
:104170001F9909F0C1F91E90DDE91E0109F0BCF993
:10418000199013E0000034434AD8124DFB21094036
:10419000008066400000104041ECCA3F00007042C1
:1041A000000034440000B4440000B4421F9909F0F8
:1041B000A3F91D90FE49209809F06AFA02D2002066
:1041C0000146B8E0FB49209809F062FA45D21D98F3
:1041D00008F094FF02460B46CDE91001F648F74976
:1041E00008F0DEFACDE914011E9808F087FF0246B8
:1041F0000B46CDE90C01F248F24908F0D1FACDE9BD
:104200001001F149209809F019F8059008F076FF9F
:10421000EE4AEF4BCDE9060108F0ECFCCDE90801D0
:1042200008F0D8F90A9008F01BF90B9008F066FF27
:1042300002460B46CDE90C01E648E74908F0B0FA22
:10424000CDE90E01DDE9102308F06EFECDE9120183
:10425000DDE9142308F0F0F96DE0209808F04EFF36
:104260004FF06632DD4BCDE9140108F0C1FD43D2B9
:10427000209808F043FFDA4ADA4BCDE9000108F054
:10428000B9FCCF4A5242D84BCDE9020108F0D4F92B
:10429000CDE90601209808F031FFCDE90401DDE900
:1042A000062308F0A7FCD14AD14BCDE9080108F05C
:1042B000C3F9CDE90C01209808F020FFCDE90A01EF
:1042C000DDE90C2308F096FCC84ACA4BCDE90E0183
:1042D00008F0B2F9CDE91201209808F00FFFCDE9FE
:1042E0001001DDE9122308F085FC0022C24BCDE964
:1042F000140108F0A1F91EE0B349209808F09EFFD0
:104300000D9008F0FBFEB14AB14BCDE90E0108F06B
:1043100071FCCDE9100108F05DF9129008F0A0F8E9
:10432000139008F0EBFE02460B46CDE91401B348AA
:10433000B34908F035FA0022B24BCDE9160108F076
:104340002FFACDE9180108F045F91C901C99209826
:1043500008F000FF1B900021229809F099F97CD207
:104360009949219808F06AFF039008F0C7FE974A20
:10437000974BCDE9040108F03DFCCDE9060108F0BA
:1043800029F9099007F092FF8F490B90379808F0B0
:1043900055FF039008F0B2FE8C4A8D4BCDE9040125
:1043A00008F028FCCDE9060108F014F9099007F09F
:1043B0000FFD0A900B9909F09FF883490D902A98F8
:1043C00008F03CFF039008F099FE804A804BCDE94D
:1043D000040108F00FFCCDE9060108F0FBF8099094
:1043E00007F064FF78490B90219808F027FF0190AF
:1043F00008F084FE754A764BCDE9020108F0FAFB1D
:10440000CDE9040108F0E6F8079007F0E1FC6E49F9
:104410000990379808F012FF019008F06FFE6B4A80
:104420006B4BCDE9020108F0E5FBCDE9040108F092
:10443000D1F8079007F03AFF0890099909F05CF865
:104440000A900B9909F018FA0C900D9908F0F6FEF5
:104450000E9007F06FFA0F9000E01DE008F04EFE9E
:104460005A4A5B4BCDE9100108F09AF90022664BDD
:10447000CDE9120108F0BEFB0022634BCDE9140127
:1044800008F0DAF8CDE9160108F0A4F84FF4B47199
:10449000199002F07DFCC7E04B49219808F0CEFE50
:1044A000039008F02BFE494A494BCDE9040108F07E
:1044B000A1FBCDE9060108F08DF8099007F0F6FEA2
:1044C00041490B90379808F0B9FE039008F016FEAA
:1044D0003E4A3F4BCDE9040108F08CFBCDE90601D3
:1044E00008F078F8099007F073FC0A900B9909F02E
:1044F00003F835490D902A9808F0A0FE039008F0C3
:10450000FDFD324A324BCDE9040108F073FBCDE9E1
:10451000060108F05FF8099007F0C8FE2A490B90E1
:10452000219808F08BFE019008F0E8FD274A284BFF
:10453000CDE9020108F05EFBCDE9040108F04AF87C
:10454000079007F045FC20490990379808F076FE5F
:10455000019008F0D3FD1D4A1D4BCDE9020108F082
:1045600049FBCDE9040108F035F8079007F09EFEFD
:104570000890099908F0C0FF0A900B9909F07CF99E
:104580000C900D9908F05AFE0E9007F0D3F90F9099
:1045900008F0B4FD0D4A0E4BCDE9100108F000F90A
:1045A0000022194BCDE9120108F024FB00222DE076
:1045B0000000AA420000A0403677F4BF5C8B163F93
:1045C000EC51B81E85EBB13F000034434AD8124D80
:1045D000FB210940CDCCCCCCCC0C4D406666E2BF73
:1045E0008D976E1283C0E63F7A9429C09A99999963
:1045F00099D95940993180C0001C9B401283C0CA90
:10460000A1C534C00020AC4000806640214BCDE9FC
:10461000140108F07DFCCDE9160107F0DBFF4FF433
:10462000B471199002F0B4FB1A901B49259808F058
:1046300063FF1A49C1F8E0011749249808F05CFFAC
:104640001649C1F8E4011A98C1F8EC011B9808F06A
:1046500055FD0022124BCDE9180108F0C9FB04D822
:1046600010490E48C0F8E81112E01B9808F046FD0A
:1046700000220D4BCDE9180108F080FA04D20B4955
:104680000648C0F8E81103E004491B98C1F8E801A6
:1046900043B000BD00E080400000C0419809002008
:1046A000004056400000B242004056C00000B2C276
:1046B00010B50446012C0DD04448007800F00100EC
:1046C00008B900F013F9002001F0AAFD00204049CC
:1046D000087010BD3F48007830B101281ED0022874
:1046E00044D003286BD159E03B49D1F8D8013B496C
:1046F00008F0CEFE0ED83849D1F8C401384908F088
:10470000C7FF03D801203349087006E00320314970
:10471000087002E002202F49087054E02B4800780E
:1047200000F0010008B900F0E1F82B49D1F8D801F8
:104730004FF0824108F0ACFF06D92749D1F8C401F7
:10474000284908F0A5FE08D8002001F069FD0020E6
:104750001F4908701F49087007E0012001F060FD43
:1047600001201B4908701B4908702CE0002001F053
:1047700057FD0020164908701448007800F0010029
:1047800008B100F031F811480078C0F3001008B10A
:1047900000F098F800200F49087014E0002001F0A4
:1047A0003FFD00200A4908700848007800F0010029
:1047B00008B900F09BF800200649087003E00020CB
:1047C0000449087000BF00BF00BF82E7AC000020B2
:1047D000AD000020B8000020980900200000A04093
:1047E0000000F0410000E04110B510231422D02158
:1047F000014801F0B7FE10BD044900202DE9F04149
:1048000000242C48C06810B9601EBDE8F0814FF448
:1048100088731422D021284801F0A4FE0446002306
:104820002922D021244801F09DFE044411231522A1
:10483000D021214801F096FE04441E4988684FF0BB
:10484000834108F059FE07464FF07E5109F014F8F5
:10485000064608F0D1FD85B22B461A22D021164813
:1048600001F080FE044413494868144909F004F833
:104870000746134908F040FE064608F0BDFD85B224
:104880002B461B22D0210C4801F06CFE04444FF44F
:1048900061631D22D021084801F064FE044445F202
:1048A00060431E22D021044801F05CFE04442046EF
:1048B000ABE70000F44800200449002000007440E9
:1048C0000000A04210B54FF488731422D02106488E
:1048D00001F048FE142000F053F910231422D021D7
:1048E000014801F03FFE10BD0449002010B54FF40F
:1048F00088731422D021024801F034FE10BD00005C
:104900000449002010B54FF48071024800F07DFD8D
:1049100010BD0000000801400120164988820020D7
:1049200008605A2088872D20A1F842001248486369
:10493000124888635A20C887A1F8400040070861E0
:104940000F4888600F4848604FF08240C8600E48AA
:1049500048620E480862002088623C20C885122008
:1049600088854FF4967048860E200886084888612E
:1049700070470000980900200000344200000743FF
:104980000000F0410000F242CDCC8C409A99F93FF2
:104990000000404010B5022000F0A8F8002864D0C4
:1049A0003248006820F002003049086000212F489A
:1049B0000838FDF794FE00212C480838FDF7F0FD7B
:1049C000022000F079F800202949087031E0002128
:1049D0002848274A127840F82210002026490870FB
:1049E0001EE02549097801EB8101214A1278114422
:1049F000224A32F8110008F037FD04461D481C4ACF
:104A0000127850F82210204608F0A4FB1949184AE1
:104A1000127841F8220018480078401C16490870A6
:104A2000154800780A28DCDB11480078401C104942
:104A300008700F4800780528C9DB0E480068104947
:104A400008600C4840680F4908600A4880680E49B1
:104A500008600848C0680D490860064800690C49AC
:104A6000086000210B4800F035F810BD0824014013
:104A70001C010020644E00201D010020004E00207B
:104A80002001002024010020280100203001002006
:104A90002C0100200800024010B504460021054802
:104AA00000F018F80348001D04600121001F00F009
:104AB00011F810BD5804024000F0805111B10349B3
:104AC000086001E0024948607047000004040240A9
:104AD0000000024021B1026842F00102026004E0DD
:104AE00002684FF6FE731A400260704701460020CC
:104AF000002201F0805313B1054B1A6801E0054B09
:104B00001A6802EA01030BB1012000E0002070479F
:104B100000040240000002401AB103680B43036026
:104B200002E003688B430360704710B500220268FF
:104B300047F6F0739A430C6A8B6823430C6923434E
:104B40004C6923438C692343CC6923434C6A234338
:104B50008C6A23431A430260CB6843600B6883600E
:104B60004B68C36010BD0C2105E00C2100BF0A1E7C
:104B7000A1F10101FBD1021EA0F10100F5D17047A6
:104B800006E0482100BF0A1EA1F1010359B2FADA7A
:104B9000021EA0F1010358B2F3DA704710B51449B0
:104BA000D1F8C801134908F073FC15D812480078F1
:104BB000401C1149087008460078142817DB0020B3
:104BC00008700B48D0F8F40120F0806000F180609C
:104BD0000749C1F8F4010AE00020074908700448B9
:104BE000D0F8F40120F080600149C1F8F40110BD53
:104BF0009809002000007041CC00002010B56C48DE
:104C000090F8AF01012863D100206A4908806A4802
:104C10000088401C6849088008460088052804DA96
:104C20006348D0F8B4016549086063480088B0F56E
:104C3000167F42DD0020604908805D48D0F8B4113D
:104C40005E48006808F018FE04464FF03F4108F047
:104C50001FFC09D25648D0F8F40120F00200801C55
:104C60005349C1F8F40107E05148D0F8F40120F0AD
:104C700002004F49C1F8F4014D48D0F8B4114F4833
:104C8000006808F0F9FD04464FF07E5108F000FD81
:104C90000BD34748D0F8B4114848006808F0ECFD41
:104CA0000446474908F0F4FB08D24148D0F8F40123
:104CB00020F020003E49C1F8F40177E03C48D0F8EC
:104CC000F40120F0200020303949C1F8F4016DE0F2
:104CD000374890F8AF01022863D100203649088098
:104CE00034480088401C334908800846008805285D
:104CF00004DA2F48D0F8B401304908602D48008804
:104D0000B0F5167F52DD00202A4908802848D0F8E7
:104D1000B4112A48006808F0AFFD04464FF07C51FA
:104D200008F0B6FC09D22248D0F8F40120F00200C5
:104D3000801C1F49C1F8F40107E01D48D0F8F401B8
:104D400020F002001A49C1F8F4011948D0F8B41152
:104D50001A48006808F090FD04464FF07E5108F0B4
:104D600097FC0BD31248D0F8B4111448006808F02F
:104D700083FD0446124908F08BFB08D20C48D0F89A
:104D8000F40120F020000A49C1F8F4010EE00848BF
:104D9000D0F8F40120F0200020300549C1F8F401DA
:104DA00004E00020044908800249088010BD00008A
:104DB00098090020CA000020C8000020C40000207C
:104DC000000080BF70B54D4890F8AE01002864DD4A
:104DD0004A4A9169D2F8B80108F05AFC0CD9474800
:104DE000D0F8B811464808F087FB0446434881696B
:104DF000204608F04DFC1DD800204249087042486A
:104E00000078401C404908700846007807F0A2FE70
:104E1000044600223D4B07F0EBFF0BD200203A493D
:104E200008703648D0F8F40120F00100401C3349E6
:104E3000C1F8F40131498869354908F05DFB044641
:104E40002E48D0F8B811204608F022FC2AD82B4969
:104E50008869304908F050FB04462848D0F8B8115A
:104E6000204608F015FB1DD826480078401C25492F
:104E7000087008460078642814DD00200870224974
:104E800008701E48D0F8F40120F001001B49C1F859
:104E9000F40100202049087004E00020194908703E
:104EA00019490870154890F8F40100F0010008B3A2
:104EB0001A480088401C1949088008460088B0F547
:104EC000966F1ADD0020088013480078401C1249B4
:104ED000087008460078082808DA0848D0F8F40175
:104EE00020F001000549C1F8F40106E009200A4953
:104EF000087002E000200949088070BD9809002070
:104F0000000080BFBC000020BD00002000002C403D
:104F10006666663F666666BFBE000020C000002071
:104F200010B53A49886B4FF0804108F013F90446F8
:104F30003648D0F8B411204608F0AAFA14D2344802
:104F40000078401C324908700846007832285CDD41
:104F5000342008702D48D0F8F40120F00800083003
:104F60002A49C1F8F40150E02849486B4FF08041CC
:104F700008F082FC04462548D0F8B411204608F019
:104F800087FB14D222480078401C2149087008464B
:104F90000078322839DD342008701C48D0F8F4013C
:104FA00020F00400001D1949C1F8F4012DE0174953
:104FB000886B4FF07E5108F05FFC04461348D0F830
:104FC000B411204608F064FB1FD21049486B4FF023
:104FD0007E5108F0BFF804460C48D0F8B4112046C2
:104FE00008F056FA11D20020094908700748D0F895
:104FF000F40120F004000549C1F8F4010846D0F896
:10500000F40120F00800C1F8F40110BD9809002057
:10501000C200002010B500F0E1F8352000F01EF8C5
:1050200000240AE00B4901EBC42000F01DF800BF8A
:1050300000F05AF80128FBD0641C502CF2D306482B
:1050400000F012F800BF00F04FF80128FBD000F08C
:1050500065F810BD00A0020800F007080149C8600B
:10506000704700000020024030B5044604254FF48C
:10507000302000F0BFF80546042D17D10C48006918
:1050800040F002000A49086108464461006940F0A6
:10509000400008614FF4302000F0ACF805460448A9
:1050A000006941F6FD71084001490861284630BD9C
:1050B0000020024004200B49C96801F0010109B138
:1050C00001200EE00749C96801F0040109B102207E
:1050D00007E00449C96801F0100109B1032000E0AC
:1050E000042070470020024004200B49C96801F0E9
:1050F000010109B101200EE00749C96801F004016E
:1051000009B1022007E00449C96801F0100109B1A2
:10511000032000E00420704700200240034800699B
:1051200040F0800001490861704700000020024003
:1051300070B504460D460426F00200F05BF8064602
:10514000042E11D10948006940F0010007490861A7
:105150002580F00200F04EF806460448006941F64A
:10516000FE71084001490861304670BD00200240D0
:1051700078B506460C46042500200090E80200F0B1
:1051800039F80546042D24D11348006940F0010088
:10519000114908613480E80200F02CF80546042D1E
:1051A00010D1B01C0090200C00990880E80200F09B
:1051B00021F805460848006941F6FE710840064995
:1051C000086106E00448006941F6FE7108400249A2
:1051D0000861284678BD00000020024002480349CB
:1051E000486003484860704723016745002002403B
:1051F000AB89EFCD00B502460423FFF75BFF034602
:1052000003E0FFF757FF0346521E012B01D1002A8E
:10521000F7D102B90523184600BD000010B500F013
:1052200073FF4FF4D8500849A1F8A80100F0D0FD51
:105230000549B1F8A81108430349A1F8A8010921BB
:105240000148A0F8AA1110BD980900202DE9F041ED
:10525000024600250026002000230024002791F8A4
:1052600003C00CF00F0591F803C00CF0100CBCF15A
:10527000000F03D091F802C04CEA050591F800C078
:10528000BCF1000F31D0146800202BE04FF0010C6E
:105290000CFA00F3B1F800C00CEA03069E4220D1DC
:1052A00083004FF00F0C0CFA03F7BC4305FA03FC24
:1052B0004CEA040491F803C0BCF1280F06D14FF06A
:1052C000010C0CFA00FCC2F814C00AE091F803C00B
:1052D000BCF1480F05D14FF0010C0CFA00FCC2F8EC
:1052E00010C0401C0828D1D31460B1F800C0BCF134
:1052F000FF0F34DD546800202EE000F1080C4FF061
:10530000010808FA0CF3B1F800C00CEA03069E424B
:1053100021D183004FF00F0C0CFA03F7BC4305FAC0
:1053200003FC4CEA040491F803C0BCF1280F05D13A
:1053300000F1080C08FA0CF8C2F8148091F803C0C8
:10534000BCF1480F07D100F1080C4FF0010808FA32
:105350000CF8C2F81080401C0828CED35460BDE879
:10536000F0810000F0B50A4600230024002100254A
:1053700000F00046B6F1004F02D11D4EF16901E088
:105380001B4E7168C0F3034583B200F44016B6F5B6
:10539000401F08D121F07061154E766826F07066C6
:1053A000134F7E6012E000F48016B6F5801F06D120
:1053B000032606FA05F4A14341F0706106E0460DAC
:1053C000360103FA06F6B14341F0706122B1460D91
:1053D000360103FA06F6314300F00046B6F1004FFD
:1053E00002D1034EF16101E0014E7160F0BD000099
:1053F000000001400246002093680B400BB10120E1
:1054000000E0002070474161704701617047000073
:1054100000487047C84600202DE9F84F83460F46E4
:105420000024002500266946232005F0FBF99DF89D
:10543000000004436946222005F0F4F9200204B27A
:105440009DF80000044369462B2005F0EBF99DF818
:105450000000054369462A2005F0E4F9280205B258
:105460009DF80000054369462D2005F0DBF99DF805
:105470000000064369462C2005F0D4F9300206B23C
:105480009DF8000006436946182005F0CBF99DF809
:105490000000382813D1304607F0CEFF804628465A
:1054A00007F0CAFF8146204607F0C6FF8246424603
:1054B0004946FDF74FFF38600020BDE8F88F4FF0F8
:1054C000FF30FAE72DE9F04F91B04FF0000AB549EF
:1054D000D1F8E80107F012FE0446B34AB34B07F0D7
:1054E00087FC7DD8AF49D1F8EC01B14908F0C4F987
:1054F000B0490E9007F0A2FE834607F0FFFD064676
:10550000AD4AAE4B07F076FB044607F063F88146E0
:1055100006F05EFC8046A349D1F8E801A54907F0F2
:105520008DFE834607F0EAFD0646A34AA34B07F02B
:1055300061FB044607F04EF8814606F091FF4146B4
:105540000F9006F017FB8246504607F0D7FD8046C5
:10555000994A9A4B07F024F906460022984B07F027
:1055600049FB044607F036F882468E49D1F8EC0133
:1055700007F0C4FD04460022914B07F0FFFA7DD8E6
:105580008848816A504608F083F879D28D495046A0
:1055900008F07EF874D28348816A504608F06CF9AE
:1055A00084490E9007F04AFE0F9007F0A7FD0646CB
:1055B000814A824B07F01EFB044607F00BF8834636
:1055C00006F074FE81467748416A484607F094FF2A
:1055D00080467448016A404608F05AF805D800E051
:1055E000DBE0504611B0BDE8F08F6E48816A50464E
:1055F00008F042F96F49029007F020FE039007F08F
:105600007DFD6D4A6D4BCDE9040107F0F3FACDE95C
:10561000060106F0DFFF089006F048FE8346614869
:10562000416A584607F068FF09905E48016A099888
:1056300007F004FE0A9006F00BFA0B9007F05EFDEF
:105640005D4A5E4BCDE90C0107F0AAF80646002240
:105650005B4B07F0CFFA04460D465549504607F01C
:1056600079FD064607F04AFD22462B46CDE90E019C
:1056700007F05AFC804606F0ADFFB3E705E0FFE710
:105680004849888F07F0F0FEACE74648816A4948F0
:1056900007F060FD0446514607F0FAFF78D24A4908
:1056A000504607F0F5FE73D23E4A516A106A07F081
:1056B000C5FD51460F903F4808F0DEF80D9039487F
:1056C000816A0D9807F046FD83463A4907F0B6FD1A
:1056D0000E9007F013FD0646374A384B07F08AFA5A
:1056E000044606F077FF814606F0E0FD80460F99FC
:1056F00007F0CEFF01D8504674E72A48816A504629
:1057000008F0BAF82B49019007F098FD834607F09E
:10571000F5FC294A294BCDE9020107F06BFACDE9E6
:10572000040106F057FF814606F0C0FD07901D48B2
:10573000416A079807F0E0FE08901A48016A089845
:1057400007F07CFD804606F083F9099007F0D6FC4F
:10575000194A1A4BCDE90A0107F022F80646002241
:10576000174B07F047FA04460D461149504608F01A
:1057700083F8064607F0C2FC22462B46CDE90C0111
:1057800006F05AFFCDE90E0106F024FF2AE7FFE7F5
:105790000449888F07F068FE24E70249888F07F0E4
:1057A00063FE1FE7980900209A9999999999B93F42
:1057B0000000B442000034434AD8124DFB21094096
:1057C00000806640000040400000314338B5044688
:1057D00000256B463422D0213F4800F0D1FD05461C
:1057E00015B14FF0FF3038BDBDF8000000F48070F7
:1057F00088B1207820F00100401C2070207820F033
:1058000002002070207820F004002070207820F022
:105810000800207030E0207820F001002070BDF8F2
:10582000000000F0800028B1207820F00200801CE9
:10583000207003E0207820F002002070BDF8000006
:1058400000F0400028B1207820F00400001D2070F6
:1058500003E0207820F004002070BDF8000000F084
:10586000180028B1207820F008000830207003E0EC
:10587000207820F008002070BDF8000000F004003F
:1058800028B1207820F010001030207003E020783C
:1058900020F010002070BDF8000000F0020028B1D8
:1058A000207820F020002030207003E0207820F0C5
:1058B00020002070BDF8000000F0010028B1207821
:1058C00020F040004030207003E0207820F04000BD
:1058D0002070002087E70000044900202DE9F843EC
:1058E000044600256B463D22D0210D4800F048FDBE
:1058F00005468DB9BDF9000007F09EFD80460949B7
:1059000007F0FAFD07464FF0834107F097FC064683
:10591000054907F093FC20602846BDE8F8830000A5
:1059200004490020DC80BB3F00007A4410B500240D
:10593000694800F0C7F904446748001FFFF7CEFF2D
:1059400004446548083000F0E9F804446348FFF770
:105950003DFF04445CB90020614908706148D0F8FB
:10596000F40120F000405F49C1F8F4011AE05C48FE
:1059700001780078401C5A4A1070052912DD052074
:10598000114608705748D0F8F40120F0004000F1AB
:1059900000405449C1F8F40100215248C0F8D01128
:1059A000C0F8CC114D480078C0F3401058B94B48AE
:1059B0000078C0F3801030B94A49D1F8D0014A4983
:1059C00007F066FD18D8002048490880484800883C
:1059D000401C4749088008460088142829DB00201D
:1059E00008804048D0F8F40120F0005000F1005049
:1059F0003C49C1F8F4011CE03A49D1F8D0013D49D5
:105A000007F046FE15D8002039490880374800883D
:105A1000401C3649088008460088642809DB0020BD
:105A200008803048D0F8F40120F000502D49C1F82A
:105A3000F4012C4890F8AE01002844D12949D1F84E
:105A4000D0012D4907F024FD19D800202B490880EA
:105A50002B480088401C2A49088008460088B0F579
:105A6000167F30DB002008801E48D0F8F40120F0BB
:105A7000805000F180501B49C1F8F40123E019491E
:105A8000D1F8D0011F4907F003FE17D800201C49A8
:105A900008801A480088401C184908800846008879
:105AA000B0F5967F0FDB002008800E48D0F8F40197
:105AB00020F080500B49C1F8F40104E000200F49A8
:105AC00008800F4908800749D1F8D00100F01CF880
:105AD0000449C1F8D40110BD680B0020AC000020BF
:105AE000AE000020980900200000B041B400002062
:105AF000B60000200000BC410000C441B2000020FC
:105B0000B00000200000D44110B504460248C1682E
:105B10002046884710BD0000F44800202DE9FE4FC4
:105B200004464FF0000A02AB4022D021484800F062
:105B300027FC8246BAF1000F23D1BDF9080007F017
:105B40007BFC0746434907F005FE0546BDF9080002
:105B500007F072FC0746404907F0CEFC064629468E
:105B600007F06CFB81463D49484607F091FC09D897
:105B700049463B4807F0C0FC05463A4907F0EAFAB7
:105B8000206062E03549484607F082FD0ED2324976
:105B9000484607F07DFC09D84946334807F0ACFC7D
:105BA0000546324907F0D6FA20604EE02A494846B9
:105BB00007F06EFD18D22E49484607F069FC13D84D
:105BC000484607F09BFA07462A4A2B4B07F012F883
:105BD00005464FF00042294B06F02EFDCDE90001AD
:105BE00006F0F8FC206030E02149484607F050FDFF
:105BF0000ED22349484607F04BFC09D849462148B4
:105C000007F07AFC0546204907F0A4FA20601CE062
:105C10001B49484607F03CFD0ED21C49484607F098
:105C200037FC09D849461A4807F066FC0546194969
:105C300007F090FA206008E04946174807F05CFC3E
:105C40000546164907F086FA20605046BDE8FE8FEB
:105C50000449002000AAAA46000020419A999940D0
:105C6000B0031CC19358B44213F271C0E9A6764246
:105C7000CDCC644164CC5D4BC88700C0E9A64640EA
:105C80003333B3418885A2BFDB7906420000E4418B
:105C9000D34D62BF1D5AC9414F1EB6BEDD24EC4034
:105CA00010B5002440210648FFF7A4FB044360061A
:105CB000040E80210248FFF79DFB0443204610BDDF
:105CC000001401402DE9F843044600256B463A22B2
:105CD000D0210C4800F054FB054685B9BDF9000001
:105CE00007F0AAFB8046084907F006FC074607496B
:105CF00007F002FC0646064907F0A0FA2060284695
:105D0000BDE8F883044900200000E040DBE0443EA9
:105D100000007A44F0B50346144620466FF00105B2
:105D2000DE1703EB9676B610A3EB86062EB9642633
:105D300093FBF6F706FB173636B94FF4C87693FB9C
:105D4000F6F706FB17360EB94FF0FF35032906DAD2
:105D5000012901D1002200E01F2210441BE0072985
:105D60000BDC0A4601EBD27677104E1EC6EB061608
:105D700007EB46062E4430440DE005F1D606A1F1AE
:105D80000807C7EB071706EB4707CA1F02EBD276D7
:105D900007EB66063044F0BD70B507490748006858
:105DA00007F0AAFB0546064907F0A6FB044605498D
:105DB00007F044FA70BD000033335340280100203F
:105DC000BE9F4E4100002047004870479048002089
:105DD00010B500244FF400710A48FFF70BFB044391
:105DE0006006040E4FF480710648FFF703FB04437E
:105DF0006006040E80210348FFF7FCFA04432046A6
:105E000010BD00000018014070B50949094800683C
:105E100007F072FB06464FF08B4107F00FFA05467C
:105E2000054907F029FD0446044907F007FA70BD4B
:105E30000000044220010020000025430000304102
:105E40000146C1EBC100024A02EB8000007E7047B0
:105E50001C4900200146C1EBC100024A02EB800050
:105E6000807E70471C49002070B5074907480068CC
:105E700007F042FB0546064907F03EFB044605498C
:105E800007F0DCF970BD00003333534024010020DB
:105E9000BE9F4E410000204770B50949094800687F
:105EA00007F02AFB06464FF08B4107F0C7F905467D
:105EB000054907F0E1FC0446044907F0BFF970BD4D
:105EC0000000044230010020000025430000304162
:105ED00070B509490948006807F00EFB06464FF007
:105EE0008B4107F0ABF90546054907F0C5FC0446B0
:105EF000044907F0A3F970BD000004422C01002002
:105F00000000254300003041F8B5044600266B46EA
:105F1000002292210F4800F033FA0646BEB99DF8E0
:105F20000150BDF80000000200B20090BDF8000072
:105F300000F47F4000B20090BDF9000028430090BB
:105F4000BDF90000C11700EB116109122180304634
:105F5000F8BD0000784E00202DE9FC4705460E46AE
:105F600017469846DDE90A9A002400200090019027
:105F70004FF480716348FFF746FA4FF400716148AF
:105F8000FFF743FA80215F48FFF73DFA0A20FEF74A
:105F9000EAFD00BF5BE04FF480715A48FFF735FA25
:105FA0000A20FEF7E0FD182C18DA40215548FFF7CB
:105FB00021FA012841D12046E11704EB5171C910A3
:105FC000A4EBC102012191406A4602EBE40212787F
:105FD00011436A4602EBE40211702EE01C2C10DA29
:105FE00040214848FFF706FA012826D19DF8030012
:105FF000A4F1180101228A401043C0B28DF80300B9
:106000001BE0342C19DA40213E48FFF7F3F9012850
:1060100013D1201DC11700EB5171C910A0EBC102B3
:10602000012191406B46221D03EBE20212781143DD
:10603000CAB2211D03EBE1010A704FF480713148AF
:10604000FFF7E1F90A20FEF78EFD601CC4B2342C84
:10605000A1DB4FF400712B48FFF7D5F99DF8000044
:1060600000F00F009DF80010C1F3021101EB810157
:1060700000EB410028809DF8010000F00F009DF822
:106080000110C1F3021101EB810100EB41003080EE
:106090009DF8020000F00F009DF80210C1F30111FD
:1060A00001EB810100EB410038809DF8040000F015
:1060B0000F009DF80410C1F3011101EB810100EB09
:1060C0004100A8F800009DF8050000F00F009DF8C1
:1060D0000510C1F3001101EB810100EB4100A9F8AB
:1060E00000009DF8060000F00F009DF80610090959
:1060F00001EB810100EB410000F2DA70AAF8000028
:10610000BDE8FC870010014008B50121402003F0E4
:106110007BFA8020ADF8000004208DF803000220F7
:106120008DF8020069460A48FFF790F84FF4807036
:10613000ADF8000069460648FFF788F84FF4007094
:10614000ADF8000069460248FFF780F808BD00007E
:106150000018014018B9054A12880A8004E0012895
:1061600002D10A88014B1A8070470000CE0000203F
:106170001748184908601848486018488860184847
:10618000C86018480861184848611848886118486C
:10619000C861184808624862174888621748C86290
:1061A0001748086317484863174888631748C86347
:1061B00010480864164848640E488864C864154846
:1061C0000865154848651548C8650A480866704757
:1061D00055970008904800205F97000879970008BD
:1061E000559F0008819E0008959D0008E1A60008C3
:1061F0006DA100085561000831A4000859A30008EA
:1062000039A2000899A20008F9A20008C5A3000855
:10621000D9990008BDA70008DDA7000871980008FB
:1062200010B50446012C04D181020548FFF7EDF8B2
:1062300004E04FF480610248FFF7E5F810BD00006C
:106240000018014008B50121402003F0DDF94FF4AA
:106250008060ADF8000010208DF8030002208DF85A
:10626000020069460448FEF7F1FF4FF480610248DE
:10627000FFF7C9F808BD00000018014070B50446DA
:106280000025A18A2069FFF7BEF821896068FFF721
:10629000BCF80120FEF774FCA18A2069FFF7B5F86D
:1062A0000320FEF76DFC21896068FFF7A3F8012841
:1062B00000D10125A18A2069FFF7A5F80120FEF78A
:1062C0005FFC284670BD70B504460D46A18A206962
:1062D000FFF799F80120FEF753FC21896068FFF76A
:1062E00094F800202870072620E0A18A2069FFF793
:1062F0008AF80120FEF744FCA18A2069FFF785F89F
:106300000320FEF73DFC21896068FFF773F8012840
:1063100003D12978B04001432970A18A2069FFF791
:1063200072F80220FEF72CFC701E46B2002EDCDA5A
:1063300070BD38B504460121206803F065F90121DC
:10634000E06803F061F92089ADF8000014208DF8B1
:10635000030003208DF8020069466068FEF776FFAF
:1063600021896068FFF751F8A08AADF800006946FE
:106370002069FEF76BFFA18A2069FFF746F838BD58
:106380002DE9F84380460E4617461C46002500209E
:10639000208006F0FE06404600F0ADF8314640464B
:1063A00000F03EF84046FFF769FF00B16D1E394628
:1063B000404600F035F84046FFF760FF00B16D1E23
:1063C00046F00106404600F096F83146404600F09F
:1063D00027F84046FFF752FF00B16D1E6946404660
:1063E000FFF771FF20889DF8001008432080404689
:1063F00000F049F869464046FFF765FF20889DF8A0
:1064000000104FF47F4202EA0121084320804046F9
:1064100000F055F8404600F086F82846BDE8F883BD
:106420002DE9F04104460E460127072527E0A18A01
:106430002069FEF7E8FF0120FEF7A2FB46FA05F00F
:1064400000F0010020B121896068FEF7DEFF03E063
:1064500021896068FEF7D7FF0120FEF791FBA18A32
:106460002069FEF7D2FF0520FEF78AFBA18A20698A
:10647000FEF7C9FF0120FEF783FB681E45B2002D21
:10648000D5DABDE8F08110B50446A18A2069FEF78F
:10649000BAFF21896068FEF7B6FF0120FEF770FBA6
:1064A000A18A2069FEF7B1FF0520FEF769FBA18AEA
:1064B0002069FEF7A8FF0120FEF762FB10BD10B5B2
:1064C0000446A18A2069FEF79EFF21896068FEF7D5
:1064D0009CFF0120FEF754FBA18A2069FEF795FF7F
:1064E0000520FEF74DFBA18A2069FEF78CFF0120F5
:1064F000FEF746FB10BD10B5044621896068FEF723
:1065000084FF0220FEF73CFBA18A2069FEF77DFF95
:106510000220FEF735FB21896068FEF774FF022038
:10652000FEF72EFB10BD10B50446A18A2069FEF7C8
:106530006AFF0120FEF724FB21896068FEF763FFF4
:106540000120FEF71DFBA18A2069FEF75EFF0220F5
:10655000FEF716FB21896068FEF757FF0120FEF762
:106560000FFB10BD2DE9F04180460E4617461D4633
:10657000002406F0FE064046FFF7BDFF31464046C8
:10658000FFF74EFF4046FFF779FE00B1641E394623
:106590004046FFF745FF4046FFF770FE00B1641E1E
:1065A000E9B24046FFF73CFF4046FFF767FE00B107
:1065B000641E290A4046FFF733FF4046FFF75EFEA0
:1065C00000B1641E4046FFF7AEFF2046BDE8F081F3
:1065D0002DE9F04180460D4616461F46002405F081
:1065E000FE054046FFF787FF29464046FFF718FFA4
:1065F0004046FFF743FE00B1641E31464046FFF7B8
:106600000FFF4046FFF73AFE00B1641E3946404690
:10661000FFF706FF4046FFF731FE00B1641E40461B
:10662000FFF781FF2046BDE8F08110B5012003F09F
:1066300083F800BF612003F061F80028FAD045F22A
:10664000555000F029F8042000F01AF84FF47A6051
:1066500000F01CF800F00CF800F002F810BD00008B
:106660004CF6CC4001490860704700000030004003
:106670004AF6AA2001490860704700000030004037
:1066800001494860704700000030004001498860BF
:10669000704700000030004001490860704700006A
:1066A0000030004000211E4880F8AD11806CFF28AA
:1066B00002D11B48816431E0194890F8480000F08D
:1066C000F000202803D117481749086026E0144835
:1066D00090F8480000F0F000102803D11348124948
:1066E00008601BE00E4890F8480000F0F0004028D9
:1066F00003D10F480C49086010E0094890F84800A1
:1067000000F0F000802803D10A480749086005E03E
:10671000002103488164D0F8F01101657047000042
:1067200098090020952B000894000020096D0008AE
:10673000516C0008412900082DE9FE4F05460C4622
:10674000DFF8D491DFF8D4A1DFF8D4B14946284668
:1067500006F0D2FE074673480168484606F0CCFEB4
:10676000804671480168404606F0F4FF0646394607
:1067700006F0F0FC6D4908606A4800686C490860E2
:106780006C4801686C4806F0B7FE02906B480168DF
:10679000484606F0B1FE019069480168484606F097
:1067A000ABFE009067480168009806F0D3FF804672
:1067B000019907F061F80746029906F0CBFC0646FE
:1067C000514606F0C7FC604908605A4801684846CF
:1067D00006F092FE064659480168304606F0BAFFB8
:1067E0005A49086053480168484606F085FE064647
:1067F00053480168304606F0ADFF554908605146E0
:106800004C48006806F0A6FC5249086059464E48BC
:10681000006806F09FFC064631464B48006806F0CB
:106820000DFD4D49086059464748006806F092FC46
:10683000064631464648006806F000FD47490860B4
:106840003A480168204607F017F8074642480168B1
:10685000384606F051FE064634480168304606F0D8
:1068600079FC3149086031480168204607F004F896
:1068700007463A480168384606F03EFE06462C4870
:106880000168304606F066FC264908603248016817
:106890004FF07E5006F0F0FF06462B480168304668
:1068A00006F02AFE274908602B4801684FF07E5009
:1068B00006F0E2FF064625480168304606F01CFE59
:1068C0001E49086025480168254806F015FE074660
:1068D0001D480168384606F00FFE06461C48016850
:1068E000304606F037FC164908601C4801681C4811
:1068F00006F002FE074615480168384606F0FCFD22
:10690000064614480168304606F024FC0949086030
:1069100005480068BDE8FE8F0AD7A33C0AD7233C90
:1069200000002041E0000020DC000020D400002016
:10693000D80000200001002017B7D139F80000204E
:10694000FC000020F4000020E4000020E80000200B
:10695000EC000020F00000200401002008010020CD
:10696000000080BF10B50948007838B901200749F8
:10697000087002210648FEF746FD06E000200349A4
:10698000087002210248FEF740FD10BD10010020F2
:106990000018014008B50121402002F035FE022018
:1069A000ADF8000010208DF8030002208DF80200E1
:1069B00069460448FEF74AFC02210248FEF725FD1D
:1069C00008BD00000018014010B502210148FEF783
:1069D0001CFD10BD0018014010B502210148FEF752
:1069E00012FD10BD00180140F8B569460F2003F0F4
:1069F00019FF0EE069460F2003F014FF9DF8000018
:106A0000692800D106E0002401E0601CC4B2322CE9
:106A1000FBDBEFE700BF0021112004F037FE7021FF
:106A2000102004F033FE0121122004F02FFE11E0AB
:106A3000002000906946122003F0F4FE9DF800004B
:106A400000F0010000B906E0002401E0601CC4B2BF
:106A5000322CFBDBECE700BF0021012004F016FE26
:106A600020210B2004F012FE00210D2004F00EFE68
:106A700000210E2004F00AFE4321102004F006FE3F
:106A80004221112004F002FE7421122004F0FEFDC8
:106A90008C21132004F0FAFD0021142004F0F6FDEF
:106AA0000021152004F0F2FD0021162004F0EEFD77
:106AB000C421172004F0EAFD1021582004F0E6FD5F
:106AC0003821182004F0E2FD3821192004F0DEFD01
:106AD000002400203C49086037E00020009069460F
:106AE0001E2003F09FFE9DF8000000F00200022827
:106AF0001DD100256946232003F094FE9DF8000077
:106B000005436946222003F08DFE280205B29DF858
:106B100000000543284606F08FFC06462A48016817
:106B2000304606F017FB28490860601CC4B2052CEB
:106B30000BDD204606F098FC0646314622480068E8
:106B400006F07CFB2049086000E0C6E700BF002497
:106B500037E00020009069461E2003F063FE9DF898
:106B6000000000F0020002281DD100256946232004
:106B700003F058FE9DF8000005436946222003F00B
:106B800051FE280205B29DF800000543284606F094
:106B900053FC06460C480168304606F0DBFA0A4909
:106BA0000860601CC4B21E2C0BDD204606F05CFCA5
:106BB000064631460448006806F040FB024908607A
:106BC00000E0C6E700BFF8BDD000002008B50024F3
:106BD00000BFFFF7DFFE24E0601CC4B21148C06CA8
:106BE00028B9062C16DD0024FFF7BCFE12E00D4884
:106BF000C06C012802D1FFF7EFFE0BE00948C06C22
:106C0000022805D1022C05DB0024FFF7ABFE01E0D2
:106C1000FFF7DAFEFFF72CFD6A4600210A2001F09B
:106C2000C9F9D9E79809002010B54FF4004102488E
:106C3000FEF7EBFB10BD00000008014010B54FF45B
:106C400000410248FEF7DFFB10BD000000080140D4
:106C500070B52A4890F8480000F0F000402805D1AF
:106C6000264890F8480000F00F0018B12448254944
:106C7000086070BD0020214981F8AC01486B4FF0DD
:106C80007E5106F067FA04461C49B1F8420006F04E
:106C9000EBFB0546214606F0FBFB08D21749486B83
:106CA0004FF07E5106F056FA1449086520E013496A
:106CB000886B4FF07E5106F0DFFD04460F49B1F8B6
:106CC000420006F0D1FB0546214606F0E1FC08D261
:106CD0000A49886B4FF07E5106F0CEFD07490865E2
:106CE00006E00649B1F8420006F0BEFB034908651C
:106CF0000121024880F8AD1100BFBAE798090020D1
:106D0000A56600089400002010B51E4890F84800C1
:106D100000F0F000102803D01B481C49086010BD8B
:106D20000020184981F8AC01084690F8480018285E
:106D30000CD10121134880F8AD110146486B4FF08A
:106D4000804106F007FA0F49086518E00D4890F8F1
:106D5000480014280CD101210A4880F8AD110146E1
:106D6000886B4FF0804106F087FD0649086506E014
:106D70000021044880F8AD11D0F8F011016500BF82
:106D8000CDE7000098090020A566000894000020C7
:106D90002DE9F04F89B082460C464FF0000BD946E2
:106DA0000021504606F074FC2FD8504606F0A6F994
:106DB000074605F079FA054605F086FE81465046FD
:106DC00006F09CF9CDE9000105F06EFA05460E4685
:106DD000504606F093F907462A46334606F0A4F8D3
:106DE000CDE9040199FBF4F004FB1095284605F069
:106DF0009AFECDE90201DDE9042305F01DFCCDE991
:106E0000060105F0E7FB834656E02AF0004B5846A2
:106E100006F074F9074605F047FA054605F054FEFA
:106E2000814699FBF4F004FB1099584606F066F988
:106E3000CDE9000105F038FACDE90201584606F027
:106E40005DF90746DDE9022306F06EF805460E46B9
:106E5000484605F068FE2A463346CDE9040105F0B0
:106E6000EBFB00221346CDE9060105F0F1FD02D14E
:106E70004FF0000B20E0204606F0DEFA06463146D1
:106E8000584606F0DBF9054606F09AFA00F10109CA
:106E9000504606F033F921F00048074609FB04F09C
:106EA00005F041FE3A464346CDE9060106F03CF8BE
:106EB000054605F08FFB8346584609B0BDE8F08FC4
:106EC00008B5002000F06EF802F0F0FA5CE02F4AFE
:106ED0002F49002000F08CF800283AD12B48007888
:106EE0002C49898A884202D028480078D0B90020ED
:106EF00029490880294908802548028828492348CB
:106F000002F0C4F82549088008460088002836DDCC
:106F10001E48007898B3224A08460188002000F0F5
:106F2000BFF82CE01C4801880088401C1A4A1080D9
:106F300047F23050814222DBFFF776FE6A4600219D
:106F4000642001F037F8FFF779FE0020124908802D
:106F500015E0114801880088401C0F4A108047F254
:106F6000305081420BDBFFF75FFE6A460021642050
:106F700001F020F8FFF762FE0020074908806A460A
:106F80000021012001F016F8A1E700009C45002037
:106F90008400002098090020860000208200002044
:106FA0007044002010B5044614B1012C14D109E03E
:106FB00004F066F80A480B4908600B480968C1F8F4
:106FC00060020AE004F05CF8084806494860064898
:106FD0004968C1F8600200E000BF00BF10BD0000BA
:106FE0003849002014010020994A00089C4B0020D9
:106FF0002DE9F04104460E469046284850F82400FA
:107000000079AB2842D1254850F824004179234823
:1070100050F824004079401C204A52F82420507136
:10702000062938DB56201D4951F82410087100202C
:107030001A4951F824104871184850F82400008863
:1070400030800020154951F8241008803188134AF7
:1070500052F82420901DFCF75DF90746DFB90025A2
:107060000EE00E4850F82400801D405D08F8050031
:10707000FF210A4850F82400801D4155681C85B244
:107080003088A842EDDC0020BDE8F08100200349F3
:1070900051F8241048714FF0FF30F5E7140100203B
:1070A0002DE9F04105460E469046002406E000BF5B
:1070B00000BF00BF00BF00BF601C84B24CF2503064
:1070C0008442F4DB002406E000BF00BF00BF00BF25
:1070D00000BF601C84B24CF250308442F4DB0024C8
:1070E00009E018F80410154850F8250000F59970CB
:1070F0000155601C84B2B442F3DB104951F82510ED
:1071000001F599703146FCF705F907460B4850F830
:10711000250000F5997087553A0A084850F825006F
:1071200000F59970711C4254B21C90B2034A52F897
:107130002520D2F860128847BDE8F08114010020B4
:1071400010B503F08FFF002411E00221204600F06B
:1071500013F90020C4EBC401064A02EB8101087652
:10716000C4EBC40102EB81018876601CC4B2012C1F
:10717000EBDB10BD1C49002008B5002400BF00F067
:1071800075F9EFE0784890F8AD0100287ED0764898
:1071900090F8F401C0F34010002877D1724890F8BD
:1071A000F401C0F300100028F7D16F4890F8F40103
:1071B00000F001000028F0D16B4890F8F401C0F312
:1071C00040000028E9D16848D0F8F401C0F34070CD
:1071D0000028E2D16448D0F8F401C0F380600028B0
:1071E000DBD1614890F8AC01012807D15E490869FC
:1071F0004FF0804106F022F8044600E000245B488E
:10720000007820B1012854D002287CD16CE0564A85
:10721000D2F8B411106D06F02FFB064652480169F2
:10722000304606F035FA12D202214F4880F8B011EC
:107230004F4801780078401C4D4A1070C82937DD4E
:1072400002204A49087000201146087030E0464884
:107250000169484806F050F90646434AD2F8B4118D
:10726000106D06F009FB0746314606F011F914D2FD
:1072700001213D4880F8B0113D4801780078401C5C
:107280003B4A1070C82913DD012000E050E0374967
:1072900008700020114608700AE0FFF751FF002037
:1072A000324908703249087000212F4880F8B01127
:1072B0003DE02D4AD2F8B411106D06F0DDFA064615
:1072C000214606F0E5F905D9274890F8F401C0F306
:1072D000800028B1FFF734FF00202449087002E045
:1072E000002000F0DBF822E01F4A116DD2F8B40153
:1072F00006F0C2FA0646214606F0CAF907D91A482E
:1073000090F8F40100E00CE0C0F3C00028B1FFF7F2
:1073100017FF00201549087002E0002000F0E4F893
:1073200005E0FFF70DFF00201049087000BF08E0DE
:10733000FFF706FF00200D49087000210A4880F879
:10734000B0110020FEF786FD074981F8AE0100204C
:10735000FEF776FD044981F8AF016A46002101205D
:1073600000F028FE0EE700009809002088000020A9
:1073700089000020000080BF70B504460D46012D35
:107380000DD1C4EBC4020D4B03EB82021189C4EB97
:10739000C40203EB82025068FEF737F80CE0C4EB3E
:1073A000C402064B03EB82021189C4EBC40203EB57
:1073B00082025068FEF727F870BD00001C490020CB
:1073C00070B504460D46012D0DD1C4EBC4020E4B21
:1073D00003EB8202918AC4EBC40203EB82021069C0
:1073E000FEF713F80EE0022D0CD1C4EBC402064BDD
:1073F00003EB8202918AC4EBC40203EB82021069A0
:10740000FEF701F870BD00001C49002008B50121FD
:10741000202002F0F9F84FF44040ADF800001020B1
:107420008DF8030003208DF8020069460D48FDF732
:107430000DFF4FF400410B48FDF7E5FF09480A49ED
:1074400048604FF40040088120200860054808612A
:107450004FF4804088822020C8600020087688761B
:1074600008BD0000001401401C49002010B5FFF7C2
